:020000040800F2
:1000000000000000410400084DCD00085BCD000851
:1000100061CD000867CD00086DCD0008000000002C
:1000200000000000000000000000000073CD000888
:10003000C11C000800000000311B0008CD1C000896
:10004000CD1C0008CD1C0008CD1C0008CD1C0008EC
:10005000CD1C0008CD1C0008CD1C0008CD1C0008DC
:10006000CD1C0008CD1C0008CD1C0008CD1C0008CC
:10007000CD1C0008CD1C0008CD1C0008CD1C0008BC
:1004000010B5054C237833B9044B13B10448AFF34E
:1004100000800123237010BD400300200000000075
:10042000800B010808B5034B1BB103490348AFF328
:10043000008008BD0000000044030020800B01087C
:1004400072B6DFF840D01048016841F470010160D5
:100450000E490F4A0F4B914204D053F8040B41F858
:10046000040BF8E74FF000000B490C4A914202D010
:1004700041F8040BFAE70CF033FC0DF05BFD0CF0D7
:1004800013FCFEE70080012088ED00E00000002062
:1004900040030020A82B010840030020EC2400208A
:1004A00010F8012B11F8013B012A28BF9A42F7D01E
:1004B000D01A7047034613F8012B002AFBD1181AF3
:1004C000013870470000000000000000000000003C
:1004D00001F0FF01102A2BDB10F0070F08D010F8F5
:1004E000013B013A8B422DD010F0070F42B3F6D1F9
:1004F000F0B441EA012141EA014122F007047FF012
:1005000000070023F0E80256083C85EA010586EA68
:10051000010685FA47F5A3FA87F586FA47F6A5FAA4
:1005200087F68EB9EED1F0BC01F0FF0102F00702B0
:1005300032B110F8013B013A83EA010313B1F8D15B
:100540000020704701387047002D06BF354603383C
:10055000073815F0010F07D1013015F4807F02BF75
:10056000013015F4C03F0130F0BC0138704700BFC6
:1005700081F0004102E000BF83F0004330B54FEA54
:1005800041044FEA430594EA050F08BF90EA020FC1
:100590001FBF54EA000C55EA020C7FEA645C7FEA54
:1005A000655C00F0E2804FEA5454D4EB5555B8BF77
:1005B0006D420CDD2C4480EA020281EA030382EAE8
:1005C000000083EA010180EA020281EA0303362D7A
:1005D00088BF30BD11F0004F4FEA01314FF4801C4D
:1005E0004CEA113102D0404261EB410113F0004F5F
:1005F0004FEA03334CEA133302D0524263EB430316
:1006000094EA050F00F0A780A4F10104D5F1200EB3
:100610000DDB02FA0EFC22FA05F2801841F100010E
:1006200003FA0EF2801843FA05F359410EE0A5F1E2
:1006300020050EF1200E012A03FA0EFC28BF4CF013
:10064000020C43FA05F3C01851EBE37101F00045C9
:1006500007D54FF0000EDCF1000C7EEB00006EEBD6
:100660000101B1F5801F1BD3B1F5001F0CD3490860
:100670005FEA30004FEA3C0C04F101044FEA4452B7
:1006800012F5800F80F09A80BCF1004F08BF5FEA3E
:10069000500C50F1000041EB045141EA050130BD1E
:1006A0005FEA4C0C404141EB0101013C28BFB1F530
:1006B000801FE9D291F0000F04BF01460020B1FA7B
:1006C00081F308BF2033A3F10B03B3F120020CDA4E
:1006D0000C3208DD02F1140CC2F10C0201FA0CF02C
:1006E00021FA02F10CE002F11402D8BFC2F1200C91
:1006F00001FA02F120FA0CFCDCBF41EA0C01904047
:10070000E41AA2BF01EB0451294330BD6FEA04048F
:100710001F3C1CDA0C340EDC04F11404C4F120027A
:1007200020FA04F001FA02F340EA030021FA04F38C
:1007300045EA030130BDC4F10C04C4F1200220FAE3
:1007400002F001FA04F340EA0300294630BD21FA21
:1007500004F0294630BD94F0000F83F4801306BFE7
:1007600081F480110134013D4EE77FEA645C18BFDB
:100770007FEA655C29D094EA050F08BF90EA020F72
:1007800005D054EA000C04BF1946104630BD91EA6A
:10079000030F1EBF0021002030BD5FEA545C05D16D
:1007A0004000494128BF41F0004130BD14F58004AC
:1007B0003CBF01F5801130BD01F0004545F0FE4120
:1007C00041F470014FF0000030BD7FEA645C1ABF55
:1007D000194610467FEA655C1CBF0B46024650EA8C
:1007E000013406BF52EA033591EA030F41F40021B8
:1007F00030BD00BF90F0000F04BF0021704730B53E
:100800004FF4806404F132044FF000054FF0000112
:1008100050E700BF90F0000F04BF0021704730B5D3
:100820004FF4806404F1320410F0004548BF4042A8
:100830004FF000013EE700BF42004FEAE2014FEAFD
:1008400031014FEA02701FBF12F07F4393F07F4FD8
:1008500081F06051704732F07F4208BF704793F0DB
:100860007F4F04BF41F40021704730B54FF46074EE
:1008700001F0004521F000411CE700BF50EA0102F1
:1008800008BF704730B54FF000050AE050EA01029A
:1008900008BF704730B511F0004502D5404261EB0A
:1008A00041014FF4806404F132045FEA915C3FF44B
:1008B000D8AE4FF003025FEADC0C18BF03325FEAE8
:1008C000DC0C18BF033202EBDC02C2F1200300FA99
:1008D00003FC20FA02F001FA03FE40EA0E0021FABE
:1008E00002F11444BDE600BF70B54FF0FF0C4CF4AC
:1008F000E06C1CEA11541DBF1CEA135594EA0C0F5E
:1009000095EA0C0F00F0DEF82C4481EA030621EA98
:100910004C5123EA4C5350EA013518BF52EA0335D3
:1009200041F4801143F4801338D0A0FB02CE4FF085
:100930000005E1FB02E506F00042E0FB03E54FF0B5
:100940000006E1FB03569CF0000F18BF4EF0010EAD
:10095000A4F1FF04B6F5007F64F5407404D25FEAA9
:100960004E0E6D4146EB060642EAC62141EA55515C
:100970004FEAC52040EA5E504FEACE2EB4F1FD0C9E
:1009800088BFBCF5E06F1ED8BEF1004F08BF5FEA1C
:10099000500E50F1000041EB045170BD06F00046CE
:1009A00046EA010140EA020081EA0301B4EB5C047B
:1009B000C2BFD4EB0C0541EA045170BD41F4801173
:1009C0004FF0000E013C00F3AB8014F1360FDEBF98
:1009D000002001F0004170BDC4F10004203C35DA74
:1009E0000C341BDC04F11404C4F1200500FA05F3F7
:1009F00020FA04F001FA05F240EA020001F0004298
:100A000021F0004110EBD37021FA04F642EB06010D
:100A10005EEA430E08BF20EAD37070BDC4F10C0437
:100A2000C4F1200500FA04F320FA05F001FA04F2FB
:100A300040EA020001F0004110EBD37041F10001E7
:100A40005EEA430E08BF20EAD37070BDC4F12005F2
:100A500000FA05F24EEA020E20FA04F301FA05F25A
:100A600043EA020321FA04F001F0004121FA04F202
:100A700020EA020000EBD3705EEA430E08BF20EAD2
:100A8000D37070BD94F0000F0FD101F0004640000C
:100A900041EB010111F4801F08BF013CF7D041EA8E
:100AA000060195F0000F18BF704703F00046520092
:100AB00043EB030313F4801F08BF013DF7D043EA63
:100AC0000603704794EA0C0F0CEA135518BF95EA19
:100AD0000C0F0CD050EA410618BF52EA4306D1D1A0
:100AE00081EA030101F000414FF0000070BD50EABF
:100AF000410606BF1046194652EA430619D094EA49
:100B00000C0F02D150EA013613D195EA0C0F05D132
:100B100052EA03361CBF104619460AD181EA030186
:100B200001F0004141F0FE4141F470014FF000003E
:100B300070BD41F0FE4141F4780170BD70B54FF0D9
:100B4000FF0C4CF4E06C1CEA11541DBF1CEA135559
:100B500094EA0C0F95EA0C0F00F0A7F8A4EB05043B
:100B600081EA030E52EA03354FEA013100F0888032
:100B70004FEA03334FF0805545EA131343EA1263FB
:100B80004FEA022245EA111545EA10654FEA0026B0
:100B90000EF000419D4208BF964244F1FD0404F569
:100BA000407402D25B084FEA3202B61A65EB0305C5
:100BB0005B084FEA32024FF480104FF4002CB6EB82
:100BC000020E75EB030E22BFB61A754640EA0C0002
:100BD0005B084FEA3202B6EB020E75EB030E22BF42
:100BE000B61A754640EA5C005B084FEA3202B6EB83
:100BF000020E75EB030E22BFB61A754640EA9C0042
:100C00005B084FEA3202B6EB020E75EB030E22BF11
:100C1000B61A754640EADC0055EA060E18D04FEACF
:100C2000051545EA16754FEA06164FEAC30343EA6F
:100C300052734FEAC2025FEA1C1CC0D111F4801F3C
:100C40000BD141EA00014FF000004FF0004CB6E735
:100C500011F4801F04BF01430020B4F1FD0C88BFD4
:100C6000BCF5E06F3FF6AFAEB5EB030C04BFB6EBDF
:100C7000020C5FEA500C50F1000041EB045170BDD2
:100C80000EF0004E4EEA113114EB5C04C2BFD4EBFF
:100C90000C0541EA045170BD41F480114FF0000E83
:100CA000013C90E645EA060E8DE60CEA135594EAFF
:100CB0000C0F08BF95EA0C0F3FF43BAF94EA0C0F02
:100CC0000AD150EA01347FF434AF95EA0C0F7FF477
:100CD00025AF104619462CE795EA0C0F06D152EACB
:100CE00003353FF4FDAE1046194622E750EA4106AF
:100CF00018BF52EA43067FF4C5AE50EA41047FF4C0
:100D00000DAF52EA43057FF4EBAE12E74FF0FF3C24
:100D100006E000BF4FF0010C02E000BF4FF0010CF5
:100D20004DF804CD4FEA410C7FEA6C5C4FEA430C6E
:100D300018BF7FEA6C5C1BD001B050EA410C0CBFBD
:100D400052EA430C91EA030F02BF90EA020F00201F
:100D5000704710F1000F91EA030F58BF994208BF86
:100D600090422CBFD8176FEAE37040F00100704743
:100D70004FEA410C7FEA6C5C02D150EA013C07D19A
:100D80004FEA430C7FEA6C5CD6D152EA033CD3D0E5
:100D90005DF8040B704700BF8446104662468C46DF
:100DA0001946634600E000BF01B5FFF7B7FF002812
:100DB00048BF10F1000F01BD4DF808EDFFF7F4FF3B
:100DC0000CBF012000205DF808FB00BF4DF808EDC6
:100DD000FFF7EAFF34BF012000205DF808FB00BFE9
:100DE0004DF808EDFFF7E0FF94BF012000205DF80B
:100DF00008FB00BF4DF808EDFFF7CEFF94BF0120C0
:100E000000205DF808FB00BF4DF808EDFFF7C4FFB8
:100E100034BF012000205DF808FB00BF4FEA410C01
:100E20007FEA6C5C02D150EA013C0AD14FEA430CE4
:100E30007FEA6C5C02D152EA033C02D14FF0000021
:100E400070474FF0010070474FEA410212F500125F
:100E500015D211D56FF47873B3EB625212D94FEA01
:100E6000C12343F0004343EA505311F0004F23FAEB
:100E700002F018BF404270474FF00000704750EA40
:100E8000013005D111F0004008BF6FF000407047FD
:100E90004FF00000704700BF53B94AB9002908BF9E
:100EA00000281CBF4FF0FF314FF0FF3000F06EB94B
:100EB000ADF1080C6DE904CE00F006F8DDF804E0B1
:100EC000DDE9022304B070472DE9F047089D044690
:100ED0008C46002B40F083808A42174647D9B2FAED
:100EE00082F242B1C2F1200024FA00F09140974012
:100EF00040EA010C94404FEA1748230CBCFBF8F67B
:100F00001FFA87FE08FB16C143EA014306FB0EF1F8
:100F1000994209D9FB1806F1FF3080F019819942F6
:100F200040F21681023E3B445B1AA4B2B3FBF8F0D8
:100F300008FB103344EA034400FB0EFEA64509D922
:100F40003C1900F1FF3380F00581A64540F2028193
:100F500002383C4440EA0640A4EB0E0400261DB1D2
:100F6000D4400023C5E900433146BDE8F08702B90B
:100F7000FFDEB2FA82F2002A50D1CB1B4FEA174EA5
:100F80001FFA87F80126B3FBFEFC210C0EFB1C3375
:100F900041EA034108FB0CF38B4207D979180CF1A5
:100FA000FF3002D28B4200F2E9808446C91AA3B214
:100FB000B1FBFEF00EFB101143EA014408FB00F800
:100FC000A04507D93C1900F1FF3302D2A04500F239
:100FD000D9801846A4EB080440EA0C40BFE78B42D6
:100FE00009D9002D00F0B1800026C5E90001304686
:100FF0003146BDE8F087B3FA83F6002E4AD18B4222
:1010000002D3824200F2B880841A61EB030101200E
:101010008C46002DA8D0C5E9004CA5E7C2F12003FD
:1010200020FA03F6974001FA02F04FEA174ED94032
:101030003043030CB1FBFEF61FFA87F80EFB1611C6
:1010400043EA014306FB08F1994204FA02F409D984
:10105000FB1806F1FF3C80F08D80994240F28A80B7
:10106000023E3B445B1A81B2B3FBFEF00EFB103331
:1010700041EA034100FB08F38B4207D9791800F1DC
:10108000FF3C73D28B4271D902383944CB1A40EA03
:10109000064678E7C6F1200C03FA06F422FA0CF3B0
:1010A0001C4320FA0CF701FA06F34FEA144E21FA1A
:1010B0000CF11F433B0CB1FBFEF91FFA84F80EFB49
:1010C000191143EA014109FB08FA8A4502FA06F2BE
:1010D00000FA06F308D9611809F1FF3048D28A45B1
:1010E00046D9A9F102092144A1EB0A01BFB2B1FB23
:1010F000FEF00EFB101147EA014700FB08F8B84567
:1011000007D9E71900F1FF312ED2B8452CD90238A2
:10111000274440EA0940A7EB0807A0FB02894F4596
:10112000C64649461AD317D05DB1B3EB0E0267EB42
:10113000010707FA0CFCF2404CEA0202F740C5E94D
:10114000002700263146BDE8F0872E4628460BE7EB
:101150000646E9E61846FDE64345E5D2B8EB020E41
:1011600069EB04010138DFE70846D2E760468DE706
:101170008146B9E7664675E730464AE7ACF1020CAE
:10118000394413E702383C4424E700BF704700BFEE
:1011900080B487B000AFF860B9607A603B604FF010
:1011A000FF337B61FB68002B01D17B690EE0FB689C
:1011B000BA681A60FB687A685A60FB683A6A9A6093
:1011C000FB683A68DA6000237B617B6918461C374C
:1011D000BD465DF8047B704780B58AB000AFF8600B
:1011E000B9607A604FF0FF33FB61FB68002B05D0DC
:1011F000BB68002B02D07B68002B01D1FB699FE00C
:10120000FB689A68FB685B689A4203D0FB685B687E
:10121000002B03DC0023FB61FB6991E0FB685A684B
:10122000FB689B68D31A7A689342A8BF1346FB6198
:10123000FB697B62BB683B62FB68DA68FB689B68A2
:101240001A44FB685B689A4227DDFB68DA68FB6832
:101250009B681344FA68526893FBF2F102FB01F2B7
:101260009B1ABB617B6A7B61FB681A68BB6913448C
:101270003B617B69002B3FDD7B691A46396A38691F
:101280000CF08DFEFB689A687B691A44FB689A60D3
:101290007A6A7B69D31A7B622EE0FB68DA68FB68A6
:1012A0009B681A447B6A1A44FB685B689A4223DD98
:1012B000FB68DA68FB689B681344BB61FB685A688B
:1012C000BB69D31A7B61FB681A68BB6913443B6135
:1012D0007B691A46396A38690CF061FE7B693A6AA3
:1012E00013443B62FB689A687B691A44FB689A6006
:1012F0007A6A7B69D31A7B627B6A002B1FDDFB68ED
:10130000DA68FB689B681344FA68526893FBF2F151
:1013100002FB01F29B1ABB617B6A7B61FB681A6866
:10132000BB6913443B617B691A46396A38690CF022
:1013300036FEFB689A687B691A44FB689A60FB6911
:1013400018462837BD4680BD80B58AB000AFF8602A
:10135000B9607A604FF0FF33FB61FB68002B05D06A
:10136000BB68002B02D07B68002B01D1FB6970E0C9
:10137000FB689B68002B03D0FB685B68002B03DCD9
:101380000023FB61FB6964E0FB689B687A68934219
:10139000A8BF1346FB61FB697B62BB683B62FB68CD
:1013A000DA68FB6859687B6ACB1A9A4231DBFB68C2
:1013B000DB68BB61FB685A68FB68DB68D31A7B613A
:1013C000FB681A68BB6913443B617B69002B20DD15
:1013D0007B691A463969386A0CF0E1FDFB68DA6806
:1013E0007B691344FA68526893FBF2F102FB01F245
:1013F0009A1AFB68DA60FB689A687B69D21AFB6804
:101400009A607A6A7B69D31A7B627B693A6A134471
:101410003B627B6A002B1BDDFB68DB68BB617B6A80
:101420007B61FB681A68BB6913443B617B691A46A0
:101430003969386A0CF0B3FDFB68DA687B691A44D5
:10144000FB68DA60FB689A687B69D21AFB689A606D
:10145000FB6918462837BD4680BD80B485B000AF13
:1014600078604FF0FF33FB607B68002B02D07B6815
:101470009B68FB60FB6818461437BD465DF8047B2B
:10148000704780B485B000AF78604FF0FF33FB60E9
:101490007B68002B07D07B6800229A607B68002263
:1014A000DA600023FB60FB6818461437BD465DF820
:1014B000047B704780B58AB000AFF860B9607A608D
:1014C0000023BB6100237B6200233B62FB681B6837
:1014D000BB61FB687A6A1A607B68002B01D17B6A6A
:1014E00040E07868FEF7E6FF03467B617B683B627D
:1014F00009E03B6A1B78202B02D13B6A00221A705C
:101500003B6A01333B627B697A6813443A6A9A42C8
:10151000EFD30023FB777B683B6219E03B6A1B78C3
:10152000002B0FD0FB7F002B0CD17A6ABB699A424B
:1015300008DA7B6A9B00BA6813443A6A1A607B6ACD
:1015400001337B623B6A1B78FB773B6A01333B626A
:101550007B697A6813443A6A9A42DFD3FB687A6AF5
:101560001A607B6A18462837BD4680BD80B400AF3C
:10157000034B1B781846BD465DF8047B704700BFDF
:101580005C03002080B483B000AF0346FB71FB799D
:10159000052B01D9054B03E0FB79054A52F82330AE
:1015A00018460C37BD465DF8047B7047680C01088F
:1015B0000000002080B485B000AF78604FF0FF33AA
:1015C000FB60084B1B68002B04D1064A7B68136044
:1015D0000023FB60FB6818461437BD465DF8047BAA
:1015E000704700BF6003002090B589B002AFF8607B
:1015F000B9607A603B6000237B61114B1B68002B54
:1016000018D00F4B1B685B68002B13D00C4B1B686A
:101610005B681B68002B0DD0094B1B685B681C685E
:10162000FB6A0193BB6A00933B687A68B968F86803
:10163000A04778617B6918461C37BD4690BD00BF46
:101640006003002080B582B000AF78600C4B1B684F
:10165000002B11D00A4B1B685B68002B0CD0084B89
:101660001B685B68DB68002B06D0054B1B685B685A
:10167000DB687868984700BF00BF0837BD4680BD6B
:101680006003002080B584B000AF78600023FB6069
:101690000D4B1B68002B11D00B4B1B685B68002B9C
:1016A0000CD0094B1B685B681B69002B06D0064BEE
:1016B0001B685B681B6978689847F860FB68184688
:1016C0001037BD4680BD00BF6003002080B584B0E8
:1016D00000AF78600023FB600D4B1B68002B11D01E
:1016E0000B4B1B685B68002B0CD0094B1B685B68BD
:1016F0005B69002B06D0064B1B685B685B697868EA
:101700009847F860FB6818461037BD4680BD00BF9B
:101710006003002080B584B000AF78600023FB60D8
:101720000D4B1B68002B11D00B4B1B685B68002B0B
:101730000CD0094B1B685B689B69002B06D0064BDD
:101740001B685B689B6978689847F860FB68184677
:101750001037BD4680BD00BF6003002080B584B057
:1017600000AF78600023FB600D4B1B68002B11D08D
:101770000B4B1B685B68002B0CD0094B1B685B682C
:10178000DB69002B06D0064B1B685B68DB69786859
:101790009847F860FB6818461037BD4680BD00BF0B
:1017A0006003002080B586B000AFF860B9607A6051
:1017B00000237B610E4B1B68002B13D00C4B1B6866
:1017C0005B68002B0ED00A4B1B685B681B6A002B02
:1017D00008D0074B1B685B681B6A7A68B968F868B1
:1017E000984778617B6918461837BD4680BD00BFB1
:1017F0006003002080B584B000AF786039600023BA
:10180000FB600E4B1B68002B12D00C4B1B685B68F7
:10181000002B0DD0094B1B685B685B6A002B07D05F
:10182000064B1B685B685B6A396878689847F860A4
:10183000FB6818461037BD4680BD00BF600300201E
:1018400080B584B000AF78600023FB600D4B1B684F
:10185000002B11D00B4B1B685B68002B0CD0094B85
:101860001B685B689B6A002B06D0064B1B685B6895
:101870009B6A78689847F860FB6818461037BD4641
:1018800080BD00BF6003002080B584B000AF7860E9
:101890000023FB600D4B1B68002B11D00B4B1B680A
:1018A0005B68002B0CD0094B1B685B68DB6A002B64
:1018B00006D0064B1B685B68DB6A78689847F8605F
:1018C000FB6818461037BD4680BD00BF600300208E
:1018D00080B584B000AF78600023FB600D4B1B68BF
:1018E000002B12D00B4B1B685B68002B0DD0094BF3
:1018F0001B685B681B6C002B07D0064B1B685B6882
:101900001B6C7A6810469847F860FB6818461037D9
:10191000BD4680BD6003002080B582B000AF786016
:101920007B68002B15D00D4B1B68002B11D00B4B87
:101930001B685B68002B0CD0084B1B685B685B6CFA
:10194000002B06D0054B1B685B685B6C786898477A
:1019500000BF00BF0837BD4680BD00BF6003002048
:1019600080B584B000AF78600023FB60114B1B682A
:10197000002B1AD00F4B1B685B68002B15D00D4B4A
:101980001B685B681B6C002B0FD00A4B1B685B68E5
:101990001B6C7A6810469847F860FB68002B04D0EF
:1019A0007A680021F8680CF008FBFB6818461037CD
:1019B000BD4680BD6003002080B584B000AF786074
:1019C00039600023FB607B683A6802FB03F3BB606D
:1019D000B86800F0D2FD0346FB60FB68002B04D022
:1019E000BA680021F8680CF0E8FAFB68184610376E
:1019F000BD4680BD80B582B000AF4FF000024FF011
:101A00000003C7E900230E4B1B68002B11D00C4BC1
:101A10001B685B68002B0CD0094B1B685B68DB6C98
:101A2000002B06D0064B1B685B68DB6C9847C7E948
:101A30000001D7E90023104619460837BD4680BD8E
:101A40006003002080B582B000AF4FF0FF337B60B1
:101A50000C4B1B68002B10D00A4B1B685B68002BDB
:101A60000BD0084B1B685B681B6D002B05D0054B2A
:101A70001B685B681B6D984778607B681846083761
:101A8000BD4680BD6003002080B582B000AF4FF03E
:101A9000FF337B6000F01CFD78607B6818460837D8
:101AA000BD4680BD72B615481549026841EA02017B
:101AB000016014484FF00101016013484168016062
:101AC00001688A884FF0100342EA03028A80D1F845
:101AD00000C04FF002030CF1240C0CF1040CDCF8F4
:101AE0000000DCF814E0DCF818200CF1200C8CF37A
:101AF000098862B683F31488104700BF20ED00E028
:101B00000000FFFFBC210020B4210020EFF3108073
:101B100072B6704700BF184680F31088704700BF48
:101B200002484FF080510160704700BF04ED00E0B3
:101B3000EFF3108C72B6194A126822B12DE90050E9
:101B40009047BDE80050EFF309801EF0100F01D15F
:101B500020ED108B40F804ED20E9F01F104D4FF000
:101B600010082E683060B78827EA0807B7806868D1
:101B70002860878847EA080787800168B1E8F01F76
:101B800051F804EB1EF0100F01D1B1EC108B81F372
:101B900009888CF31088704700BF0000AC03002058
:101BA000B421002080B485B000AF78607B6803F07A
:101BB0000703FB600C4BDB68BB60BA684FF6FF03A2
:101BC0001340BB60FB681A02BB68134343F0BF635A
:101BD00043F40033BB60044ABB68D36000BF1437D2
:101BE000BD465DF8047B704700ED00E080B483B033
:101BF00000AF0346FB7197F90730002B0BDBFB7935
:101C000003F01F02074997F907305B09012000FA2A
:101C100002F241F8232000BF0C37BD465DF8047B7B
:101C2000704700BF00E100E080B483B000AF03461E
:101C30003960FB7197F90730002B0ADB3B68DAB299
:101C40000C4997F907301201D2B20B4483F80023F4
:101C50000AE03B68DAB20849FB7903F00F03043B62
:101C60001201D2B20B441A7600BF0C37BD465DF8A4
:101C7000047B704700E100E000ED00E080B483B039
:101C800000AFEFF305837B607B6818460C37BD46D9
:101C90005DF8047B7047000080B500AF05480CF08C
:101CA000FFFDFFF7EBFF03461A46034903480CF01C
:101CB000F7FDFEE7700C0108D41E0108780C01083E
:101CC00080B500AFFFF7E8FF00BF80BD80B582B0F0
:101CD00000AFFFF71BFF7860154B1B680133144AF8
:101CE00013607868FFF718FFFFF7C8FF38603B689C
:101CF0000F3B3B600F4A3B6852F82330002B05D066
:101D00000C4A3B6852F82330984701E0FFF7C4FFC4
:101D1000FFF7FCFE7860064B1B68013B044A13602A
:101D20007868FFF7F9FE00BF0837BD4680BD00BFE9
:101D300064030020B41D002080B500AF034B044AAB
:101D40009A600720FFF72EFF00BF80BD00ED00E086
:101D50000000000880B586B000AFF8607B600B46DD
:101D60007B8113463B817B68002B01D1164B26E01B
:101D7000FB68EF2B05D9FB68B3F1FF3F01D0134B94
:101D80001DE07B89072B01D9114B18E0FFF7BEFE40
:101D90007861FB6801330F497A6841F82320FB68BA
:101DA0005BB21846FFF722FFFB685BB27A891146E7
:101DB0001846FFF739FF7869FFF7AEFE0023184693
:101DC0001837BD4680BD00BF0109000200090002AE
:101DD00005090002B41D002080B500AFFFF7A0FE8A
:101DE00000BF80BD80B582B000AFFFF78FFE786086
:101DF00000F06CFF0346283B0B4A53600A4B1A68FD
:101E0000094B5B689A4209D0084B1B88002B05D10F
:101E10007868FFF781FEFFF783FE02E07868FFF73E
:101E20007BFE0837BD4680BDB4210020B0210020D4
:101E300080B400AF72B600BFFEE7000080B586B088
:101E400000AF786039607B68DB687B617B689B688A
:101E50007A6913443B617B689B681A464FF0CA312C
:101E600078690CF0AAF87B694FF0CC321A603B69B4
:101E7000483B3B613B69FB60FB684FF004321A60F2
:101E8000FB684FF005325A60FB684FF006329A60EB
:101E9000FB684FF00732DA60FB684FF008321A61D6
:101EA000FB684FF009325A61FB684FF010329A61BB
:101EB000FB684FF01132DA61FB6800221A62FB689E
:101EC0006FF002025A627B681A69FB689A62FB68CB
:101ED0004FF00132DA62FB684FF002321A63FB689E
:101EE0004FF003325A63FB684FF012329A63084A8C
:101EF000FB68DA63074AFB681A64FB684FF080727C
:101F00005A647B683A691A6000BF1837BD4680BDC5
:101F1000311E00089936000880B584B000AF7860A3
:101F20000823FB600821482004F06BFA02467B6816
:101F3000DB681A447B68DA607B68DB68BB60064B51
:101F40001B68FA68B968184604F014F80346184686
:101F50001037BD4680BD00BF7821002080B483B01B
:101F600000AF03463960FB7197F90730002B0ADB9D
:101F70003B68DAB20C4997F907301201D2B20B4430
:101F800083F800230AE03B68DAB20849FB7903F0E2
:101F90000F03043B1201D2B20B441A7600BF0C3778
:101FA000BD465DF8047B704700E100E000ED00E015
:101FB00080B582B000AF78607B68013BB3F1807F71
:101FC00001D301230FE00A4A7B68013B53600F21D4
:101FD0004FF0FF30FFF7C2FF054B00229A60044B21
:101FE00007221A60002318460837BD4680BD00BF8F
:101FF00010E000E080B584B002AF1D4B1B68002BE1
:1020000004D01B4B1B68B3F57A7F01D2194B2AE031
:1020100000230093184B002207214FF0FF30FFF7F9
:1020200099FE134B1B68154AA2FB03239B09144A14
:10203000136014494FF000024FF00003C1E9002380
:102040000B4B1B680D4AA2FB03239B091846FFF7A5
:10205000AFFF78607B68012B01D10B4B03E00B4B8A
:1020600001221A60002318460837BD4680BD00BF14
:102070005801002000040002653E0008D34D6210A4
:10208000382300203023002002040002B403002083
:1020900080B584B000AF0E4B1B68002B06D04FF00C
:1020A00000024FF00003C7E902230AE0FFF72EFD0C
:1020B0007860084BD3E90023C7E902237868FFF76B
:1020C0002BFDD7E90223104619461037BD4680BDC7
:1020D000640300203023002080B400AF034B1022A3
:1020E0001A6000BFBD465DF8047B7047AC2100203C
:1020F00080B582B000AFFFF77DFF78607B68002B72
:1021000007D007480CF0CCFB06480CF065FC7B6858
:1021100002E0FFF7C7FC7B6818460837BD4680BD64
:10212000880C0108900C010880B582B000AFFFF761
:10213000D3FF03F07FFE78607B68002B08D02B482C
:102140000CF0AEFB79682A480CF0AAFB7B6848E0EB
:10215000FFF7F2FD01F01CF978607B68002B07D0D7
:1021600022480CF09DFB23480CF036FC7B6838E0DD
:1021700001F076FA02F0BEF978607B68002B01D09E
:102180007B682EE001F0F6FE78607B68002B01D0C2
:102190007B6826E002F02AFC78607B68002B07D081
:1021A00012480CF07DFB14480CF016FC7B6818E01C
:1021B00000F04EFA78607B68002B07D00B480CF0DB
:1021C0006FFB0E480CF008FC7B680AE001F0FEFD96
:1021D00001F076F978607B68002B01D07B6800E025
:1021E000002318460837BD4680BD00BF880C010893
:1021F000A40C0108C00C0108D40C0108E80C01086B
:1022000080B582B000AF78607B68184601F0C4FCEE
:1022100000BF0837BD4680BD80B58EB000AFF86006
:10222000B9607A603B6000237B6300233B6307F166
:1022300014031822002118460BF0BFFE7B68FB61D7
:102240007B6C9BB23B83FB687B62BB687B613B68BA
:102250003B6207F1140207F12C031146184601F006
:1022600025FB38633B6B002B01D07B6B02E0FB6AE4
:102270007B637B6B18463837BD4680BD80B584B024
:1022800000AF78604FF0FF33FB607B68002B09D014
:102290007B68BB60B86801F07FFB0346002B01D16F
:1022A0000023FB60FB6818461037BD4680BD80B533
:1022B00082B000AF01F02CF97860786801F06CFB17
:1022C00000BF0837BD4680BD80B582B000AF7860E2
:1022D000786801F087FE0346002B01D1012300E05E
:1022E000002318460837BD4680BD80B582B000AFD8
:1022F00078607B684FF0FF31184601F02FFF0346EE
:10230000002B01D1012300E0002318460837BD4609
:1023100080BD80B582B000AF78607B68184601F060
:10232000F5FF0346002B01D1012300E000231846EE
:102330000837BD4680BD80B582B000AF78607B684D
:10234000184601F0ABFE0346002B01D1012300E04B
:10235000002318460837BD4680BD80B584B000AF65
:10236000F860B9607A607B689BB2BA6891B2FA682B
:10237000184602F0FDF80346002B01D1012300E0CE
:10238000002318461037BD4680BD80B582B000AF2F
:10239000786039603B68B3F1FF3F02D14FF0FF3303
:1023A0003B607B683968184602F0A6F90346002BAB
:1023B00001D1012300E0002318460837BD4680BD47
:1023C00080B582B000AF78607B68184602F042FAB0
:1023D0000346002B01D1012300E0002318460837F3
:1023E000BD4680BD80B582B000AF78607B6818467E
:1023F00002F020F90346002B01D1012300E0002365
:1024000018460837BD4680BD80B584B000AF7860FF
:102410000023FB607B68002B07DD064B1B687A6896
:102420001146184603F083FDF860FB681846103724
:10243000BD4680BD7821002080B582B000AF7860B5
:10244000044B1B687968184603F0B4FD00BF0837D9
:10245000BD4680BD7821002080B582B000AF786095
:102460003960064B1B683A687968184603F092FD9C
:10247000034618460837BD4680BD00BF78210020BE
:1024800080B500AFFFF704FE02460B461046194622
:1024900080BD80B400AF00231846BD465DF8047BC4
:1024A000704780B586B002AFF860B9607A603B6073
:1024B000F868BB6899B27B689AB2BB6900933B68C5
:1024C000FFF748FC034618461037BD4680BD0000A4
:1024D00080B582B000AF4FF0FF337B600448FFF758
:1024E00069F878607B6818460837BD4680BD00BF34
:1024F000401F010880B582B000AF7860396038684D
:1025000000F03BF8034618460837BD4680BD80B54D
:1025100084B000AFF860B9607A607B681946B8682B
:10252000FFF79AFF034618461037BD4680BD80B5B9
:1025300084B000AFF860B9607A607968B86800F07C
:1025400028F8034618461037BD4680BD80B582B0D6
:1025500000AF78603960386800F004F800BF0837D1
:10256000BD4680BD80B582B000AF78607868FFF767
:10257000D3F900BF0837BD4680BD80B582B000AF3B
:1025800078607868FFF7A4F9034618460837BD4617
:1025900080BD80B582B000AF7860396039687868F6
:1025A000FFF70AFA034618460837BD4680BD00000B
:1025B000B0B588B000AF08237B60124B18683A1D95
:1025C00007F108014FF0FF3302F0D8FCF861FB6916
:1025D000002BF2D17B68082BEFD1BB68002BECD02D
:1025E00001F032FCC7E90401BB68FA68104698475D
:1025F00001F02AFCD7E90423841A61EB0305C7E93B
:102600000445DAE78421002080B588B000AF3B1D87
:102610001822002118460BF0D0FC0A4B7B604FF4C7
:1026200034733B61084B7B6100233B813B1D1946A2
:10263000064801F03BF9F861FB6918462037BD46B2
:1026400080BD00BFB1250008040D010894210020C1
:1026500080B588B002AF402200212B480BF0ADFCC2
:102660002A4B00221A604FF4E073BB60284B1B68B2
:10267000B968184603F05BFC38613B69002B01D157
:10268000244B3DE0BA68002138690BF096FC224AE1
:102690003B691360214A3B6913603B6900221A8140
:1026A0003B69FB603B691C333B610123FB820DE00E
:1026B0003B69FA8A1A81FB683A691A603B69FB60D8
:1026C000FB8A0133FB823B691C333B61FB8A0F2B86
:1026D000EED9082300930023114A1021002002F0B4
:1026E000CBF978607B68002B01D00E4B08E0FFF738
:1026F0008BFF78607B68002B01D00B4B00E0002340
:1027000018461837BD4680BD680300208821002088
:102710007821002007030002802100207C21002076
:10272000842100200B0300020C03000280B48FB050
:1027300000AF786000237B6300233B634FF0FF33DF
:10274000FB624FF0FF33BB6210237B6210233B62BE
:102750000023BB617B681A697B68DA607B681B8930
:1027600003F00F03FB82FB8A9A4A52F8233003F0EE
:102770006043B3F1C04F40F0B480FB8A954A52F8F1
:102780002320FB8A42F00042924941F82320FB8A31
:10279000904A52F8233023F07F433B610023FB83B0
:1027A00054E0FB8B8B4A52F8233023F07F43FB60CD
:1027B000FB68002B46D0FA8BFB8A9A4242D0FB8BF7
:1027C000844A52F8233003F04043B3F1404F39D1EB
:1027D000FA683B699A4218D3FB683A69B3FBF2F294
:1027E000396901FB02F29B1A002B0ED1FA683B6992
:1027F000B2FBF3F3FA6A9A4225D9FA683B69B2FB55
:10280000F3F3FB62FB8B7B621DE0FA683B699A4243
:1028100019D23B69FA68B3FBF2F2F96801FB02F2E4
:102820009B1A002B0FD13A69FB68B2FBF3F3BA6A2B
:102830009A4208D93A69FB68B2FBF3F3BB62FB8B9F
:102840003B6200E000BFFB8B0133FB83FB8B0F2B54
:10285000A7D97B6A102B31D05F4B1B683B6314E018
:102860003B6BDB68BA691344BB613B6B19895B4BFB
:1028700018687A6A1346DB009B1A9B0003441B8985
:10288000994206D03B6B1B683B633B6B002BE7D147
:1028900000E000BF3B6B002B60D07B6819693B6B8D
:1028A0001A69BB69D31A7A681269B3FBF2F002FBAA
:1028B00000F29B1ACA1A7B68DA604FE03B6A102B61
:1028C0004CD07B680022DA60444B19683A6A1346A0
:1028D000DB009B1A9B000B447B637B6B1B683B6399
:1028E00057E0FB8A3B4A52F8233003F06043B3F1D0
:1028F000804F33D1FB8A374A52F82320FB8A42F0BB
:102900000042344941F82320334B1B683B6314E0F9
:102910003B6B1A697B681B699A420BD13B6B1B8925
:1029200003F00F032B4A52F8233003F04043B3F176
:10293000404F06D03B6B1B683B633B6B002BE7D1E2
:1029400000E000BF3B6B002B08D07B680022DA6000
:102950003B6B7B633B6B1B683B631AE01E4B1B6846
:102960003B6311E03B6BDA687B68DB689A420FD807
:102970007B68DA683B6BDB68D21A7B68DA603B6B9A
:102980007B633B6B1B683B633B6B002BEAD100E036
:1029900000BF7B683A6B1A603B6B002B06D03B6B29
:1029A000DA687B68DB68D21A3B6BDA607B6B002BE2
:1029B00003D1094A7B68136002E07B6B7A681A6076
:1029C0007B6802221A7100BF3C37BD465DF8047B6C
:1029D000704700BF6803002088210020802100206C
:1029E00080B483B000AF78600B4B1A687B681A60C4
:1029F000094A7B6813607B6800221A717B681B8917
:102A000003F00F03054A002142F8231000BF0C37E2
:102A1000BD465DF8047B70477C21002068030020E0
:102A200080B584B000AF274B1B68FB603EE0FB68BD
:102A30001B68244A1360FB689B697B60FB685B69C9
:102A4000BB60214B1868391D0023082202F0B8FA38
:102A5000FB685B79002B17D1F868FFF7C1FFFB68B3
:102A60001B894FF6DF72934206D8FB681B8910332F
:102A70009AB2FB681A8116E0FB681B8903F00F030A
:102A80009AB2FB681A810EE0FB685B79012B03D1D7
:102A9000F868FFF74BFE06E0FB685B79022B02D17A
:102AA000FB6801221A71074B1B68FB60FB68002B57
:102AB00003D0FB68DB68002BB9D000BF1037BD46E0
:102AC00080BD00BF882100208421002080B500AF98
:102AD000084B1B68002B09D0064B1B68DA68013ACB
:102AE000DA60DB68002B01D1FFF79AFF002318465C
:102AF00080BD00BF8821002080B483B000AF786023
:102B00007B687A685A607B687A681A6000BF0C3705
:102B1000BD465DF8047B704780B483B000AF786039
:102B200039607B685A683B685A603B687A681A600B
:102B30007B685B683A681A607B683A685A6000BFD5
:102B40000C37BD465DF8047B704780B582B000AF9E
:102B5000786039607B681B6839681846FFF7DCFFCE
:102B600000BF0837BD4680BD80B483B000AF786039
:102B70007B685B687A6812681A607B681B687A6891
:102B800052685A607B6800225A607B6800221A6093
:102B900000BF0C37BD465DF8047B704780B483B03E
:102BA00000AF78607B685B687A689A420CBF01234B
:102BB0000023DBB218460C37BD465DF8047B704736
:102BC00080B582B000AF00237B6000233B604FF4F0
:102BD00080733B60114B1B683968184603F0A7F9F6
:102BE00003460F4A13600E4B1B68002B11D00023C5
:102BF0007B600AE00A4B1A687B68DB0013441846C6
:102C0000FFF77AFF7B6801337B607B681F2BF1D96C
:102C100000E000BF0837BD4680BD00BF782100201E
:102C20008C21002080B582B000AF78603960104BF5
:102C30001A683B68DB0013441846FFF7AFFF0346F2
:102C4000002B08D04FF000423B68DA40094B1B686C
:102C50001343084A1360064B1A683B68DB001344B1
:102C600079681846FFF771FF00BF0837BD4680BD81
:102C70008C210020A803002080B584B000AF7860CC
:102C80007868FFF771FF7B68283BFB600D4B1A6883
:102C9000FB68DB88DB0013441846FFF77FFF034621
:102CA000002B0BD0FB68DB881A464FF00043D34063
:102CB000DA43054B1B681340034A136000BF10370B
:102CC000BD4680BD8C210020A803002080B483B0C5
:102CD00000AF00237B600B4B1B68002B0BD0094B14
:102CE0001B68B3FA83F37B60074B1A687B68DB00D1
:102CF00013445B6800E0002318460C37BD465DF8BE
:102D0000047B7047A80300208C21002080B485B08C
:102D100000AF78600023FB600023BB600E4B1A6895
:102D20007B68DB0013445B68BB6005E0FB68013334
:102D3000FB60BB685B68BB60074B1A687B68DB00A5
:102D40001344BA689A42F1D1FB6818461437BD465D
:102D50005DF8047B704700BF8C21002080B483B0F5
:102D600000AF78607B687A685A607B687A681A601E
:102D700000BF0C37BD465DF8047B704780B483B05C
:102D800000AF786039607B685A683B685A603B687E
:102D90007A681A607B685B683A681A607B683A6890
:102DA0005A6000BF0C37BD465DF8047B704780B5A4
:102DB00082B000AF786039607B681B68396818465C
:102DC000FFF7DCFF00BF0837BD4680BD80B483B08D
:102DD00000AF78607B685B687A6812681A607B680D
:102DE0001B687A6852685A607B6800225A607B6868
:102DF00000221A6000BF0C37BD465DF8047B7047A7
:102E000080B483B000AF78607B685B687A689A4270
:102E10000CBF01230023DBB218460C37BD465DF81A
:102E2000047B704780B400AFFEE780B582B000AF8E
:102E300078600B467B807B689B8803F00403002B43
:102E40001FD07B6828331846FFF716FF7B689B88E6
:102E500023F004039AB27B689A807B687A88DA80D0
:102E60007B689B8843F004039AB27B689A807B68F6
:102E700003F128027B68DB8819461046FFF7D2FE73
:102E800002E07B687A88DA8000BF0837BD4680BDE3
:102E900080B586B000AF786039603B6803F01F03EF
:102EA000FB603B685B093B61FB68002B02D13B691F
:102EB000013B3B617B689B6B03F078423B691A43A3
:102EC0007B689A63354B9B881A46FB681344FB600A
:102ED000FB6803F01F03FB607B689B6B23F0784269
:102EE000FB68DB061A437B689A632C4B1A68FB6805
:102EF000DB001344BB60BB685B68BA689A4206D1CA
:102F00007B6830331946B868FFF751FF41E0BB6872
:102F10005B68303B7B617B699B6B23F078427B680D
:102F20009B6B23F078439A4210D87B689B6B03F02D
:102F300078427B689B6B23F078417B699B6B23F025
:102F40007843CB1A1A437B689A6310E07B699B6BCA
:102F500003F078427B699B6B23F078417B689B6B25
:102F600023F07843CB1A1A437B699A6308E07B69A4
:102F70005B6B303B7B617B693033BA689A42CAD164
:102F80007B6903F130027B68303319461046FFF746
:102F90000EFF00BF1837BD4680BD00BFA021002036
:102FA00080B586B000AF78607B689B6BDB0E7B6181
:102FB000134B1A687B69DB0013443B617B685B6BD6
:102FC0003A699A4213D07B685B6B303BFB60FB68CD
:102FD0009B6B03F07842FB689B6B23F078417B6826
:102FE0009B6B23F078430B441A43FB689A637B681E
:102FF00030331846FFF7EAFE00BF1837BD4680BDE4
:10300000A021002080B584B000AF0023BB604F4BEF
:103010009B8801335A4203F01F0302F01F0258BF7E
:1030200053429AB2494B9A80484B1A68474B9B8847
:10303000DB0013447B607B685B687A689A4200F02F
:1030400081807B685B68303BFB6070E0FB689B883D
:103050007B80FB689B6B23F07843002B05D0FB68DB
:103060009B6B5A1EFB689A6366E0FB683033184618
:10307000FFF7ACFE7B8803F008039BB2002B12D055
:10308000FB689B8823F008039AB2FB689A80FB6870
:1030900028331846FFF79AFEFB6800229A61FB6806
:1030A0000022DA6127E07B8803F480639BB2002B67
:1030B00007D0FB689B8823F480639AB2FB689A80F0
:1030C00019E07B8803F400539BB2002B0CD0FB6803
:1030D00028331846FFF77AFEFB689B8823F40053D9
:1030E0009AB2FB689A8006E0FB689B8823F0200375
:1030F0009AB2FB689A807B8803F002039BB2002B94
:1031000011D1FB689B8843F004039AB2FB689A8054
:10311000FB6803F12802FB68DB8819461046FFF7BD
:1031200081FD0123BB607B685B68303BFB60FB6813
:1031300030337A689A4289D1BB68002B03D0FEF7FE
:1031400051FE00E000BF1037BD4680BDA021002029
:1031500080B483B000AF0346FB80FB8803F010030C
:103160009BB2002B01D0204B38E0FB8803F0040316
:103170009BB2002B01D01D4B30E0FB8803F02003F5
:103180009BB2002B01D01A4B28E0FB8803F0080308
:103190009BB2002B09D0FB8803F040039BB2002BAD
:1031A00001D0144B1AE0144B18E0FB8803F0020323
:1031B0009BB2002B01D0114B10E0FB8803F40053AD
:1031C0009BB2002B09D0FB8803F040039BB2002B7D
:1031D00001D00B4B02E00B4B00E00B4B18460C37B9
:1031E000BD465DF8047B7047100D0108180D0108FD
:1031F000200D0108280D0108340D01083C0D0108BF
:10320000440D0108580D0108640D010880B586B011
:1032100000AF78601C4B1A687B68542101FB03F3F4
:103220001344FB60FB68DB681B68B3F1CC3F1AD129
:10323000FB68DB6804337B6102E07B6904337B61FC
:10324000FB681B687A699A4204D27B691B68B3F1F8
:10325000CA3FF2D0FB689A68FB68D9687B69CB1AD1
:1032600013443B610BE009480BF01AFBFB685B6AF7
:10327000194607480BF014FB4FF0FF333B613B69E5
:1032800018461837BD4680BDA8210020700D0108E2
:10329000780D01082DE9F0418AB006AF34480BF0F3
:1032A000FFFA34480BF0FCFA33480BF0F9FA3148D6
:1032B0000BF0F6FA0023FB604FE0304B1A68FB6816
:1032C000542101FB03F31344BB60BB689B8803F0EC
:1032D0000103002B3DD1BB685D6ABB681E69BB68FA
:1032E000DB889846BB689B881846FFF731FF7860FB
:1032F000BB689C68BB681B691846FFF787FF0146DF
:10330000BB681B681846BB68DB68BA68926C05929C
:1033100004930390029101947B68009343463246E4
:10332000294617480BF0BCFABB689B69002B07D0F5
:10333000BB689B69DB88194612480BF0B1FA04E0C0
:103340004FF6FF710F480BF0ABFA0F480BF044FB40
:1033500000E000BFFB680133FB600C4B1B68FA68A0
:103360009A42AAD3002318461037BD46BDE8F08123
:103370009C0D0108140E0108180E0108A821002058
:103380008C0E0108C40E0108CC0E0108AC210020EF
:1033900080B584B000AF414B1B680133542202FB5F
:1033A00003F37B603E4B1B687968184602F0BFFD53
:1033B00003463C4A13603B4B1B68002B01D13A4B40
:1033C00067E0384B1B687A68002118460AF0F5FD63
:1033D0003648FFF7C3FC3648FFF7C0FC3548FFF717
:1033E000BDFC0023FB6020E02E4B1A68FB685421D3
:1033F00001FB03F3134401229A802A4B1A68FB68ED
:10340000542101FB03F31344FA681A61254B1A682F
:10341000FB68542101FB03F3134428331946244865
:10342000FFF7C5FCFB680133FB60FB680F2BDBD9A2
:103430000822002120480AF0C0FDFFF7C1FB4FF42D
:1034400080737B60164B1B687968184602F06FFD2D
:10345000B860BB68002B01D1134B1AE07A680021D9
:10346000B8680AF0AAFD154ABB681360134B002226
:103470009A800023FB6008E0B868FFF76FFCFB68E8
:103480000133FB60BB680833BB60FB681F2BF3D9BB
:10349000002318461037BD4680BD00BFAC21002078
:1034A00078210020A8210020000200032023002012
:1034B000C021002098210020B4210020A02100205C
:1034C00080B588B000AF3B1D1822002118460AF0D5
:1034D00074FD0C4B7B604FF4A0633B610A4B7B6136
:1034E0001F233B813B1D1946084800F0DFF9F861B6
:1034F000FB69002B01D0FB6900E000231846203750
:10350000BD4680BD252E0008D00E01089021002068
:1035100080B400AF064B1B68002B01D1054B02E0C5
:10352000034B1B681B691846BD465DF8047B70475A
:10353000B42100200702000280B500AF414B1B6898
:10354000DB681B68B3F1CC3F0CD03F480BF0A8F907
:103550003C4B1B68596A3B4B1B681B691A463B482E
:103560000BF09EF9374B5B681B681A46354B5B685E
:10357000DB689A420CD9334B5B681B681946314BA8
:103580005B68DA682F4B5B689B68134499421AD9D1
:103590002D480BF085F92B4B5B68596A294B5B680A
:1035A0001B691A462A480BF07BF927480BF078F97B
:1035B000244B5B681B681946224B5B68DB681A4624
:1035C00024480BF06DF91F4B5B681A69224B1B787E
:1035D00091B2214A5B0013440A465A801E4B1B7865
:1035E0005B0110331C4A1344981D164B5B685B6AE1
:1035F000202219460AF0D3FC174B1B78164A5B01B0
:103600001344353300221A70134B1B780133DAB29E
:10361000114B1A70104B1B780A2B09D10E4B00224C
:103620001A700D4B5B7863F07F03DAB20A4B5A7065
:103630000A4B1B68002B02D0084B1B68984700BF41
:1036400080BD00BFB4210020700D0108DC0E010810
:10365000040F0108280F0108C8210020B003002032
:1036600080B500AF4FF4AB72002107480AF0A5FC0B
:10367000054B0A225A70054B054A1A60054B002279
:103680001A6000BF80BD00BFC8210020AC0300202D
:1036900039350008B003002080B584B000AF7860F1
:1036A0000B4B1A687B68542101FB03F31344FB6046
:1036B000FB685B69FA68126A10469847FB681B69E9
:1036C000184600F069F900BF1037BD4680BD00BF45
:1036D000A821002080B588B000AF78603960002351
:1036E0007B614FF0FF33BB617B68002B01D1634BE3
:1036F000BFE03B68002B01D1614BBAE03B681B691E
:10370000002B01D15F4BB4E03B681B68002B01D15B
:103710005D4BAEE03B689B881F2B01D95B4BA8E05B
:103720003B689B881F2B06D13B681B68584A934215
:1037300001D0564B9DE03B68DB68002B03D13B6812
:103740004FF43472DA603B68DB680821184602F0F7
:1037500058FE02463B68DA603B68DB68B3F5987F49
:1037600001D24C4B85E0FEF7D1F9F86119E04A4BE4
:103770005B68283B3B61484B5B681846FFF726FBBC
:103780003B69283319464548FFF7F8FA444B1A6855
:103790003B69DB681946104602F00CFC3B690022CD
:1037A000DA603D48FFF72CFB0346002BDFD03B4897
:1037B000FFF726FB0346002B02D03A4BBB6154E0D7
:1037C000364B5B68283B3B61344B5B681846FFF720
:1037D000FDFAF869FEF7A0F93B691B697B6138685F
:1037E000FEF79AFBF860FB68002B0BD1FEF78EF911
:1037F000F8613B69283319462848FFF7BFFA2A4B7E
:10380000BB6132E03B689A683B691A62FA683B69BF
:10381000DA603B68DA683B699A603B6900229A612A
:103820003B690022DA613B6902229A803B689A88F0
:103830003B69DA803B681A683B695A613B694FF023
:10384000FF32DA633B6900229A643B681A693B697C
:103850005A623B6900221A6539683869FEF7EEFA48
:103860007B687A691A60002303E0F869FEF754F96F
:10387000BB6918462037BD4680BD00BF0702000265
:10388000010200020502000204020002030200021B
:10389000252E00080602000298210020C0210020E9
:1038A000782100201102000200020003B0B58CB0A4
:1038B00000AF786039600023FB623B68002B01D1C8
:1038C000304B5BE03B6807F10C041D460FCD0FC485
:1038D00095E8030084E8030007F10C0319467868B3
:1038E000FFF7F8FEF862FB6A002B01D0FB6A45E0A7
:1038F000254B1A687B681B68542101FB03F31344B2
:10390000BB62FEF703F97862BB6A9B8823F002036F
:103910009AB2BB6A9A80BB6A9B8843F004039AB24E
:10392000BB6A9A80BB6A03F12802BB6ADB8819462E
:103930001046FFF777F9FFF7C9F90346283B134A0A
:103940005360134B1B68002B14D0124B1B88002BA9
:1039500010D10E4B1A680D4B5B689A420AD00D4B82
:103960001B88002B06D1786AFEF7D6F8FEF734FAEA
:10397000002303E0786AFEF7CFF8002318463037BB
:10398000BD46B0BD01020002A8210020B4210020E4
:10399000BC210020B021002080B586B000AF786047
:1039A0004FF0FF337B616F4B1B687A689A4201D1FD
:1039B0006D4BD3E06D4B1B687A689A4201D16C4B1A
:1039C000CCE06C4B1B687A689A4201D36A4BC5E025
:1039D000FEF79CF83861FFF79BFD02467B68934237
:1039E00002D1664B00221A80654B1A687B6854210D
:1039F00001FB03F31344FB60FB689B887B817B899D
:103A000003F001039BB2002B07D05E4B7B6100BF2C
:103A10003869FEF781F87B69A0E07B8903F0100329
:103A20009BB2002B06D0554B1B88002B02D0534B6A
:103A300000221A807B8903F004039BB2002B0CD078
:103A4000FB6828331846FFF717F9FB689B8823F0BB
:103A500004039AB2FB689A8010E07B8903F00803A4
:103A60009BB2002B05D17B8903F400539BB2002B42
:103A700004D0FB6828331846FFF7A8F97B8903F0C8
:103A800060039BB2002B02D0F868FFF789FAFB684D
:103A90009B8823F002039AB2FB689A80FB689B889C
:103AA00043F001039AB2FB689A80FB684FF0FF3243
:103AB000DA63FB6800229A64FFF708F90346283BA3
:103AC000314A5360FB689B8803F010039BB2002BC4
:103AD0002CD0FB68283319462C48FFF768F9284B8F
:103AE0001A68244B1B68542101FB03F31344264A34
:103AF0001360254B1B687A681A61234B1B68FA68B0
:103B000092889A80204B1B68FA68D268DA601E4B54
:103B10001B68FA68526A5A62FB6801229A80386907
:103B2000FDF7FAFFFEF758F9002317E0FB680122C2
:103B30009A80FB68283319461548FFF71FF9154B83
:103B40001A68FB68DB681946104602F033FAFB6816
:103B50000022DA603869FDF7DFFF002318461837C6
:103B6000BD4680BD90210020140200029421002057
:103B700021020002AC21002007020002B021002037
:103B8000A82100200A020002B42100209821002070
:103B9000C02100207821002080B584B000AF78607B
:103BA0001E4B1B68002B01D01D4B33E01D4B1B88A7
:103BB000002B01D01C4B2DE07B68002B03D100F0C3
:103BC000AFF8034626E0FDF7A1FFF860174B1B682E
:103BD00028331846FFF750F8144B1B689A88134B8C
:103BE0001B6822F0040292B29A80104B1B6879681D
:103BF0001846FFF74DF90D4B1B689A880B4B1B6855
:103C000042F0200292B29A80F868FDF785FFFEF735
:103C1000E9F8002318461037BD4680BD6403002034
:103C20000D020003B02100200E020002B42100208A
:103C300080B586B000AFF860B9607A60184B1B6839
:103C40007B617B6928331846FFF716F87B699B88F0
:103C500023F004039AB27B699A807B6928333B6125
:103C60007B699A88BB689BB213439AB27B699A803E
:103C70003969F868FFF79BF87B68B3F1FF3F0AD01A
:103C80007B699B8843F040039AB27B699A8079688C
:103C90007869FFF7FDF800BF1837BD4680BD00BF4B
:103CA000B421002080B582B000AF786039607B68B5
:103CB00028331846FFF78AF87B689A883B689BB2DE
:103CC000DB439BB213409AB27B689A807B689B88E7
:103CD00003F04003002B09D07868FFF761F97B6897
:103CE0009B8823F040039AB27B689A807B689B880C
:103CF00003F00203002B0FD17B689B8843F0040381
:103D00009AB27B689A807B6803F128027B68DB8823
:103D100019461046FEF786FF00BF0837BD4680BD36
:103D200080B582B000AF00237B60244B1B681A690A
:103D3000234B1B689A4201D3224B3AE01F4B1B686E
:103D40009B8803F00403002B01D1002331E0FDF731
:103D5000DDFE3860194B1B68DB881846FEF7D6FF7E
:103D600078607B68012B20D9144B1B6828331846D8
:103D7000FFF72CF8114B1B689A88104B1B6842F018
:103D8000040292B29A800D4B1B6803F128020B4B80
:103D90001B68DB8819461046FEF744FF3868FDF7BC
:103DA000BBFEFEF71FF8002303E03868FDF7B4FE02
:103DB000054B18460837BD4680BD00BFB421002022
:103DC000AC210020070200021002000280B400AF04
:103DD000054B00221A60044B0A22DA8000BFBD4660
:103DE0005DF8047B704700BF2823002080B500AF3A
:103DF000124B1A68124B1B689A420FD0104B1B686B
:103E00000E4A13600F4BD3E9002392B20B4BDB88B1
:103E100013449BB2013B9AB2084B9A80074B998896
:103E2000084BD3E9002393B2994204D1034B0022FB
:103E30001A60FFF775FF00BF80BD00BF2823002078
:103E4000B42100203023002080B400AF044BD3E91C
:103E5000002310461946BD465DF8047B704700BF3D
:103E600030230020B0B500AF0E4B1B68002B09D1EA
:103E70000D4BD3E90023541C43F100050A4BC3E961
:103E800000450EE0084BD3E90023501C43F100012C
:103E9000054BC3E90001FFF7A9FFFFF7B3F8FEF7F1
:103EA00015FEB0BDB40300203023002080B483B0E1
:103EB00000AF78607B687A685A607B687A681A60BD
:103EC00000BF0C37BD465DF8047B704780B483B0FB
:103ED00000AF786039607B685A683B685A603B681D
:103EE0007A681A607B685B683A681A607B683A682F
:103EF0005A6000BF0C37BD465DF8047B704780B543
:103F000082B000AF786039607B681B6839681846FA
:103F1000FFF7DCFF00BF0837BD4680BD80B483B02B
:103F200000AF78607B685B687A6812681A607B68AB
:103F30001B687A6852685A607B6800225A607B6806
:103F400000221A6000BF0C37BD465DF8047B704745
:103F500080B483B000AF78607B685B687A689A420F
:103F60000CBF01230023DBB218460C37BD465DF8B9
:103F7000047B704780B582B000AF174B1B68002BE5
:103F800001D0002324E0144B144A1A601448FFF7B0
:103F90008DFF00237B6017E00F4B19687A6813468A
:103FA0005B001344DB000B443B603B687A685A605B
:103FB0003B6800221A703B68083319460848FFF72F
:103FC0009EFF7B6801337B607B68132BE4D9002361
:103FD00018460837BD4680BDB8030020BC0300204A
:103FE0004823002080B58AB002AF7860254B1B685B
:103FF000002B01D1FFF7BEFF7B68002B01D1224BC4
:104000003CE0FDF783FDF8612048FFF7A1FF034680
:10401000002B11D0F869FDF77FFD1D4B3B611D4B57
:10402000FB6000BF0023009300233A69F9681A4837
:1040300002F006FA3B6921E0144B5B68BB61B8698A
:10404000FFF76CFFBB69083B7B617B6900225A80EC
:104050007B6901221A707B6900229A827B690022A7
:104060001A617B6908331846FFF720FF7B695A689D
:104070007B681A60F869FDF74FFD0023184620376A
:10408000BD4680BDB8030020021D00024823002069
:10409000031D0002F8C3B2A15C0F010880B588B00F
:1040A00002AF78607B68132B04D9264B7B61264BCB
:1040B0003B6139E0254B19687A6813465B0013446D
:1040C000DB000B44FB60FDF721FDB860FB681B784B
:1040D000002B07D1B868FDF71FFD1A4B7B611A4B07
:1040E0003B6121E0FB6808331846FFF731FF0346C8
:1040F000002B03D0FB685B88002B07D0B868FDF766
:104100000BFD134B7B61104B3B610DE0FB680833EB
:1041100019461048FFF7DAFEFB6800221A70B868EB
:10412000FDF7FAFC002308E00023009300237A69DE
:104130003969094802F084F97B6918461837BD4689
:1041400080BD00BF011D0002F8C3B2A1B80300206A
:10415000091D0002482300205C0F010880B588B0CB
:1041600002AF786039607B68132B09D90023009374
:104170000023594A59495A4802F062F9564BA6E0C1
:10418000584B19687A6813465B001344DB000B44F4
:104190003B61FDF7BBFCF8603B691B78002B0CD141
:1041A000F868FDF7B9FC0023009300234A4A4B4905
:1041B0004B4802F045F9484B89E04B4B1B68002BFC
:1041C00004D0F868FDF7A8FC484B80E0484B1B681A
:1041D000BB603B695B88002B11D13B695B88013375
:1041E0009AB23B695A803B69BA681A61BB68DA883F
:1041F0003B699A82F868FDF78FFC002367E03B6912
:104200001B69BA689A420AD13B695B8801339AB24A
:104210003B695A80F868FDF77FFC002357E03B6854
:10422000002B04D1F868FDF777FC324B4FE0324B9E
:104230001B88002B0CD0314B7B6131480AF030FBDE
:1042400030480AF0C9FB00BFF868FDF765FC35E0AF
:10425000BB683A69DA613B691B69DA88BB68DB884D
:104260009A4207D93B691A69BB68DB881946104630
:10427000FEF7DBFD3B6908333A6808211846FFF773
:10428000D7FCF868FDF748FCFDF7ACFDBB689B88E0
:1042900003F04003002B0FD0FDF738FCF860BB683B
:1042A0009B8823F040039AB2BB689A80F868FDF7B8
:1042B00033FC154B7B6101E0002308E000230093F1
:1042C00000237A690549064802F0BAF87B69184666
:1042D0001837BD4680BD00BF011D0002F8C3B2A162
:1042E0005C0F0108B803002064030020051D0002D4
:1042F000B4210020041D0002B0210020061D000290
:10430000700F0108780F0108071D000280B588B002
:1043100002AF7860404B19687A6813465B0013441B
:10432000DB000B447B61FDF7F1FB38617B68132BED
:1043300003D87B691B78002B0CD13869FDF7ECFBA7
:10434000002300930023354A3549364802F078F8B7
:10435000324B5DE0344B1B68FB607B695B88002B54
:1043600004D07B691B69FA689A420CD03869FDF762
:10437000D3FB002300930023284A2949294802F04F
:104380005FF8264B44E07B695B88013B9AB27B690E
:104390005A807B695B88002B04D03869FDF7BCFB31
:1043A000002335E07B691B69DA887B699B8A9A4226
:1043B00007D07B691A697B699B8A19461046FEF70C
:1043C00034FD7B6908331846FFF7C2FD0346002B16
:1043D0001AD17B69DB68283BBB607B6901225A806C
:1043E0007B69BA681A61BB68DA887B699A82BB68A4
:1043F0000022DA610821B868FFF754FC3869FDF73C
:104400008BFBFDF7EFFC02E03869FDF785FB00232D
:1044100018461837BD4680BDB8030020011D0002B4
:10442000F8C3B2A15C0F0108B421002080B483B0AE
:1044300000AF78607B687A685A607B687A681A6037
:1044400000BF0C37BD465DF8047B704780B483B075
:1044500000AF786039607B685A683B685A603B6897
:104460007A681A607B685B683A681A607B683A68A9
:104470005A6000BF0C37BD465DF8047B704780B5BD
:1044800082B000AF786039607B681B683968184675
:10449000FFF7DCFF00BF0837BD4680BD80B483B0A6
:1044A00000AF78607B685B687A6812681A607B6826
:1044B0001B687A6852685A607B6800225A607B6881
:1044C00000221A6000BF0C37BD465DF8047B7047C0
:1044D00080B483B000AF78607B685B687A689A428A
:1044E0000CBF01230023DBB218460C37BD465DF834
:1044F000047B704780B582B000AF1948FFF796FF84
:10450000184B1B684FF4A071184601F010FD0346CC
:10451000154A1360144B1B68002B01D1134B1BE091
:104520000023FB8014E0104B1A68FB881B01134426
:104530003B603B68FA88DA803B6800221A803B685F
:10454000083319460648FFF79AFFFB880133FB80C2
:10455000FB88132BE7D9002318460837BD4680BDDA
:10456000502300207821002058230020000700025B
:1045700080B58AB002AF03463A60FB800B46BB8031
:104580003B68002B01D1254B43E0FA88BB889A4257
:1045900004D9234BFB61234BBB6131E0FDF7B6FA35
:1045A00078612148FFF794FF0346002B07D0786914
:1045B000FDF7B2FA1D4BFB611A4BBB6120E01A4BB1
:1045C0005B683B613869FFF769FF3B69083BFB604B
:1045D000FB68FA885A80FB6801221A80FB68BA8857
:1045E0009A80FB6808331846FFF720FFFB68DB88DA
:1045F0001A463B681A607869FDF78EFA002308E0D6
:10460000002300930023FA69B969094801F018FFF3
:10461000FB6918462037BD4680BD00BF0207000277
:1046200008070002F8C3B2A15023002003070002CC
:104630009C0F010880B58AB002AF78607B68132BAD
:1046400004D9284BFB61284BBB613EE0274B1A681D
:104650007B681B0113447B61FDF758FA38617B6965
:104660001B88002B19D13869FDF756FA1D4BFB61E9
:104670001D4BBB6129E07B69DB68283BFB60FB6865
:1046800000229A610821F868FFF70CFBFB689B8801
:1046900043F040039AB2FB689A807B69083318465E
:1046A000FFF716FF0346002BE5D07B690833194658
:1046B0000F48FFF7CBFE7B6900221A803869FDF7AF
:1046C0002BFAFDF78FFB002308E000230093002363
:1046D000FA69B969074801F0B3FEFB69184620374B
:1046E000BD4680BD01070002F8C3B2A158230020D7
:1046F000502300209C0F010880B588B002AF78607D
:1047000039607B68132B09D9002300930023434AA7
:104710004349444801F094FE404B7BE0424B1A6809
:104720007B681B011344FB60FDF7F0F97861FB68BF
:104730001B88002B0CD17869FDF7EEF9002300935C
:104740000023364A3649374801F07AFE334B61E0A0
:10475000FB685B88002B0AD0FB685B88013B9AB240
:10476000FB685A807869FDF7D7F9002352E03B686F
:10477000002B02D12D4B3B6140E02D4B1B68002BE1
:1047800008D02C4B3B612C480AF08AF82B480AF0E1
:1047900023F933E02A4B1B88002B08D0294B3B61BF
:1047A00025480AF07DF828480AF016F926E0274B3C
:1047B0001B68BB60BB68FA689A61FB6808333A689B
:1047C00008211846FFF734FA7869FDF7A5F9FDF7D7
:1047D00009FBBB689B8803F04003002B0CD0FDF75E
:1047E00095F97861BB689B8823F040039AB2BB6857
:1047F0009A80174B3B6101E000230BE07869FDF7DD
:104800008BF90023009300233A690549054801F01C
:1048100017FE3B6918461837BD4680BD01070002E8
:10482000F8C3B2A19C0F010858230020040700021E
:104830006403002005070002B00F0108B80F01084B
:10484000B021002006070002D80F0108B421002083
:104850000707000280B588B002AF78602C4B1A6859
:104860007B681B0113447B617B68132B01D9294BA7
:1048700049E0FDF74BF938617B691B88002B0CD1AF
:104880003869FDF749F9002300930023214A2249A2
:10489000224801F0D5FD1F4B35E07B699A887B6982
:1048A0005B889A420CD13869FDF736F900230093F2
:1048B00000231B4A1849194801F0C2FD184B22E099
:1048C0007B6908331846FFF703FE0346002B10D11F
:1048D0007B69DB68283BFB60FB6800229A6108214A
:1048E000F868FFF7DFF93869FDF716F9FDF77AFA8E
:1048F00008E07B695B8801339AB27B695A8038692A
:10490000FDF70AF9002318461837BD4680BD00BFE1
:104910005823002001070002F8C3B2A19C0F010830
:104920000807000280B483B000AF78607B687A68C3
:104930005A607B687A681A6000BF0C37BD465DF824
:10494000047B704780B483B000AF786039607B68C7
:104950005A683B685A603B687A681A607B685B6893
:104960003A681A607B683A685A6000BF0C37BD46E7
:104970005DF8047B704780B582B000AF7860396025
:104980007B681B6839681846FFF7DCFF00BF0837F3
:10499000BD4680BD80B483B000AF78607B685B6843
:1049A0007A6812681A607B681B687A6852685A6075
:1049B0007B6800225A607B6800221A6000BF0C37B7
:1049C000BD465DF8047B704780B483B000AF78606B
:1049D0007B685B687A689A420CBF01230023DBB2D4
:1049E00018460C37BD465DF8047B704780B582B031
:1049F00000AF1D4B1B684FF4DC71184601F097FAAD
:104A000003461A4A1360194B1B68002B01D1184B3F
:104A100025E0164B1B684FF4DC720021184609F0A4
:104A2000CCFA1448FFF77EFF0023FB8013E00F4B06
:104A30001A68FB882C2101FB03F313443B603B689D
:104A4000FA885A813B681C3319460A48FFF793FFDE
:104A5000FB880133FB80FB88092BE8D9002318462B
:104A60000837BD4680BD00BF7821002064230020A8
:104A7000010600025C23002080B58AB000AFF86018
:104A80007A603B600B467B813B8E0433FB847B6802
:104A9000002B01D1384B6AE03B8E4FF6FB729342FC
:104AA00001D9364B63E07B89002B02D03B8E002B73
:104AB00001D1334B5BE0334B18687B89FA8C02FBE6
:104AC00003F3194601F033FA38623B6A002B01D137
:104AD0002D4B4CE0FDF71AF8F8612C48FFF774FFF6
:104AE0000346002B0AD0F869FDF716F8254B1B6822
:104AF000396A184601F05EFA254B38E0234B5B68B3
:104B0000BB61B869FFF746FFBB691C3B7B617B69F2
:104B10007A89DA807B69FA8C1A817B693A6A1A6031
:104B20007B6901229A807B6900221A827B697A89DB
:104B30005A827B6900229A817B690022DA817B6933
:104B400014331846FFF7EEFE7B691C331846FFF757
:104B5000E9FE7B6924331846FFF7E4FEF869FCF7A9
:104B6000DBFF7B695B891A467B681A600023184665
:104B70002837BD4680BD00BF0C06000203060002B8
:104B80000D06000278210020020600025C230020AE
:104B90000406000280B485B000AFF860B9607A60A6
:104BA0003B60FB68092B01D90F4B17E0BB68002B5A
:104BB00002D07B68002B01D10C4B0FE07B681B6897
:104BC000002B01D10A4B09E03B68002B05D0094BB3
:104BD0001B68002B01D0084B00E000231846143757
:104BE000BD465DF8047B70470E0600020F0600020A
:104BF00010060002640300201806000280B485B08D
:104C000000AFF860B9607A603B60FB68092B01D99E
:104C10000E4B14E0BB68002B01D10D4B0FE07B68FD
:104C20001B68002B01D10B4B09E03B68002B05D022
:104C3000094B1B68002B01D0084B00E000231846ED
:104C40001437BD465DF8047B704700BF0E060002B6
:104C50001206000213060002640300200906000287
:104C600080B588B000AFF860B9607A603B6000231F
:104C70007B610023FB83BB6803F00303032B30D06D
:104C8000032B43D8002B02D0012B15D03EE0FB684C
:104C90009B89FB83FB689B890133FA68D288934226
:104CA00003D1FB6800229A8137E0FB689B890133BE
:104CB0009AB2FB689A8130E0FB689B89002B06D191
:104CC000FB68DB88013B9AB2FB689A8105E0FB68D0
:104CD0009B89013B9AB2FB689A81FB689B89FB83A5
:104CE0001BE0FB68DB89FB83FB68DB890133FA6827
:104CF000D288934203D1FB680022DA810DE0FB6881
:104D0000DB8901339AB2FB68DA8106E0254809F0B5
:104D1000C7FD254809F060FE41E0FB681B68FA8B7F
:104D2000F968098901FB02F21344BB61BB6803F017
:104D30000403002B0ED0BB6803F00103002B04D149
:104D4000BB691A687B681A6029E07B681A68BB69CE
:104D50001A6024E0BB6803F00103002B10D1FB684C
:104D60001B89043BBA6913441B687B617B691A4643
:104D7000B969786809F013F97A693B681A600EE03E
:104D80003B681B681A467968B86909F008F9FB683E
:104D90001B89043BBA6913443A6812681A602037C9
:104DA000BD4680BDFC0F01080410010880B58AB023
:104DB00000AFF860B9607A603B6000233B62BB687B
:104DC00003F00103FB61FCF7A1FE7862614B1A68F6
:104DD000FB682C2101FB03F31344BB61BB699B8877
:104DE000002B02D15C4B3B62ACE0BB6803F00103DB
:104DF000002B09D13B681A68BB691B89043B9A42A6
:104E000002D2564B3B629DE0BB6803F00103002BCE
:104E100009D03B681A68BB691B89043B9A4202D9D6
:104E20004F4B3B628EE0BB69FA69083233F81230AF
:104E3000002B3AD13B6B002B09D1BB6803F0010377
:104E4000002B01D1474B00E0474B3B627AE0474BD8
:104E50001B88002B02D0464B3B6273E0454B1B681E
:104E60007B61FB690233DB00BA69134404333A6B9C
:104E70004FF400511846FEF7DBFE786AFCF74CFE53
:104E8000FCF7B0FFFCF742FE78627B699B8803F079
:104E90004003002B15D07B699B8823F040039AB216
:104EA0007B699A80344B3B624CE0BB69FA690832FB
:104EB00033F81230013B99B2BB69FA69083223F822
:104EC00012103B687A68B968B869FFF7C9FEFB69D8
:104ED000002B0CBF01230023DBB20233DB00BA69D5
:104EE000134404331846FFF76FFD0346002B18D117
:104EF000FB69002B0CBF01230023DBB2BA6902332C
:104F0000DB0013449B68283B3B614FF40051386938
:104F1000FEF7C8FE786AFCF7FFFDFCF763FF00238D
:104F200014E0FB69002B0CBF01230023DBB2BA693C
:104F300003F1080132F81120013291B2BA69083345
:104F400022F81310786AFCF7E7FD3B6A1846283709
:104F5000BD4680BD642300200A0600021F06000231
:104F6000150600021D06000216060002B0210020F0
:104F700006060002B42100200706000280B588B0B2
:104F800002AFF860B9607A603B603B687A68B968E4
:104F9000F868FFF7FFFD78617B69002B01D07B6922
:104FA0000AE000233B613B6800937B68BA6839697B
:104FB000F868FFF7FBFE034618461837BD4680BD6C
:104FC00080B588B002AFF860B9607A603B603A1D86
:104FD0003B68B968F868FFF711FE78617B69002BC0
:104FE00001D07B690BE003233B613A1D3B680093D2
:104FF0001346BA683969F868FFF7D8FE03461846C1
:105000001837BD4680BD80B483B000AF78607B6840
:105010007A685A607B685A687B681A6000BF0C37F0
:10502000BD465DF8047B704780B485B000AFF86082
:10503000B9607A607B68FA681A607B68BA685A60FF
:10504000FB687A685A60BB687A681A6000BF1437D8
:10505000BD465DF8047B704780B582B000AF7860D4
:1050600039607B681B683A6879681846FFF7DCFF8F
:1050700000BF0837BD4680BD80B483B000AF786004
:105080007B681B687A6852685A607B685B687A68DC
:1050900012681A6000BF0C37BD465DF8047B70478C
:1050A00080B483B000AF78607B681B687A689A42EE
:1050B0000CBF01230023DBB218460C37BD465DF858
:1050C000047B704780B483B000AF78607B685B6816
:1050D00003F00103002B0CBF01230023DBB21846B1
:1050E0000C37BD465DF8047B704780B483B000AFD9
:1050F00078607B685B6843F001027B685A6000BFA0
:105100000C37BD465DF8047B704780B483B000AFB8
:1051100078607B685B6823F001027B685A6000BF9F
:105120000C37BD465DF8047B704780B483B000AF98
:1051300078607B685B6823F001037A681344184643
:105140000C37BD465DF8047B704780B483B000AF78
:1051500078607B681B6818460C37BD465DF8047B99
:10516000704780B483B000AF78607B68083318461E
:105170000C37BD465DF8047B704780B485B000AF46
:1051800078607B6853F8043CFB60FB6803F0010324
:10519000002B02D07B68083B00E0FB681846143700
:1051A000BD465DF8047B704780B483B000AF786083
:1051B00039607B68043B3A681A6000BF0C37BD4613
:1051C0005DF8047B704780B483B000AF7860002343
:1051D00018460C37BD465DF8047B704780B483B039
:1051E00000AF78607B68B3FA83F3C3F11F031846FE
:1051F0000C37BD465DF8047B704780B483B000AFC8
:10520000786039603B68023B7A6822FA03F3043B1A
:1052100018460C37BD465DF8047B704780B584B0F6
:1052200000AF786039603B685B681846FFF7D6FFCF
:10523000F8603B685B68F9681846FFF7DEFFB86006
:10524000FB681C2B02DD4FF0FF3349E07B681B68D5
:105250000121FA6801FA02F21A437B681A60FB68BE
:10526000043B7A6813441B795AB20121BB6801FAE6
:1052700003F35BB213435AB2FB68043BD1B27A68C2
:1052800013440A461A71FB68043BFB607B68FA68AA
:105290009100BA680A44083253F82230002B0ED12C
:1052A0003B6808331846FFF7AEFE7B68FA6891004A
:1052B000BA680A440832396843F822100FE07B6864
:1052C000FA689100BA680A44083253F8223003F1B0
:1052D00008023B68083319461046FFF7BDFE00235D
:1052E00018461037BD4680BD80B584B000AF7860E9
:1052F00039603B685B681846FFF770FFF8603B68F1
:105300005B68F9681846FFF778FFB860FB68043BF4
:10531000FB603B6808331846FFF7C2FE0346002BCC
:105320001CD17B68FA689100BA680A44083253F8C5
:1053300022303A689A420BD13B68DB68A3F108013E
:105340007B68FA689000BA680244083243F8221079
:105350003B6808331846FFF78FFE30E07B68FA6839
:105360009100BA680A440832002143F822107A6892
:10537000FB68134404331B785AB20121BB6801FA5D
:1053800003F35BB2DB435BB213405BB2D9B27A6822
:10539000FB68134404330A461A707A68FB681344A6
:1053A00004331B78002B0AD17B681B68FA6804322F
:1053B000012101FA02F2D2431A407B681A601037C9
:1053C000BD4680BD80B586B000AF78603960386872
:1053D000FFF704FF78617B69023B012202FA03F3C5
:1053E0001A463B681344013B3B603868FFF7F6FE02
:1053F000786179693868FFF700FFF8607B691D2BD9
:1054000001DD002341E07B69043B7A6813441B798A
:1054100019464FF0FF32FB6802FA03F30B403B6181
:105420003B69002B1ED17B681A687B6901334FF002
:10543000FF3101FA03F31340BB60BB68002B01D1BD
:10544000002322E0BB68DA43BB68013B1340B3FA98
:1054500083F3C3F120037B617B69043B7A681344C7
:105460001B793B613B69DA433B69013B1340B3FA6B
:1054700083F3C3F12003FB607B691A1F7B689100F3
:10548000FA680A44083253F8223018461837BD46E5
:1054900080BD80B489B000AF78607B681B68002B4A
:1054A00001D100234AE07B681B68B3FA83F3C3F1A0
:1054B0001B037B617A687B69134404331B78B3FA5E
:1054C00083F3C3F11F033B617B69182B01DD0023CC
:1054D00034E03B69032B01DD00232FE07B687A6910
:1054E00091003A690A44083253F822305B68BB6184
:1054F0007B687A6991003A690A44083253F822308D
:10550000DB68FB610DE0FB69083BFB60FB685B68E7
:10551000BA699A4202D2FB685B68BB61FB695B684F
:10552000FB617B687A6991003A690A44083253F852
:1055300022300833FA699A42E5D1BB69184624370C
:10554000BD465DF8047B704780B483B000AF7860DF
:1055500039607B681B685A1C7B681A607B685A68D4
:105560003B685B681344A3F108027B685A6000BF84
:105570000C37BD465DF8047B704780B483B000AF44
:10558000786039607B681B685A1E7B681A607B688C
:105590005A683B685B68D31A03F108027B685A605B
:1055A00000BF0C37BD465DF8047B70472DE9B003A2
:1055B00083B000AF786039607B689B685A1C7B6859
:1055C0009A607B68DA683B685B681A447B68DA60DB
:1055D0007B68D3E9062312F1010843F100097B68D7
:1055E000C3E906897B68D3E908013B685B681A4612
:1055F0004FF00003841841EB03057B68C3E90845BD
:105600007B68DA687B681B699A4203D97B68DA6831
:105610007B681A6100BF0C37BD46BDE8B003704718
:105620002DE9B00383B000AF786039607B689B6878
:105630005A1E7B689A607B68DA683B685B68D21A9E
:105640007B68DA607B68D3E90A2312F1010843F131
:1056500000097B68C3E90A897B68D3E90C013B68D0
:105660005B681A464FF00003841841EB03057B6822
:10567000C3E90C4500BF0C37BD46BDE8B003704719
:1056800080B582B000AF786039607B6839681846B1
:10569000FFF7C4FD0346002B02D04FF0FF3307E0B5
:1056A0007B6803F5DC7339681846FFF74DFF00236C
:1056B00018460837BD4680BD80B582B000AF78601F
:1056C00039607B6839681846FFF70EFE7B6803F582
:1056D000DC7339681846FFF750FF00BF0837BD4636
:1056E00080BD80B584B000AF786039607B68396870
:1056F0001846FFF767FEF860FB68002B03D0F968D7
:105700007868FFF7D9FFFB6818461037BD4680BDA3
:1057100080B584B000AF78607B68002B02D14FF079
:10572000FF3316E04FF40C720021786808F045FC56
:105730007B6803F5DA731846FEF754FCF860FB68E3
:10574000002B01D0FB6804E07B681846FFF73BFDA7
:10575000002318461037BD4680BD80B588B000AF25
:10576000F860B9607A60FB68002B02D0BB68002B40
:1057700002D14FF0FF336EE0BB6803F003037A6899
:10578000D31A7B607B6823F003037B60BB6823F044
:105790000303BB607B68002B02DA4FF0FF335AE053
:1057A0007B68272B02D84FF0FF3354E0FB68D3F817
:1057B000B4314FF0FF311846FEF7D0FC0346FB61D1
:1057C000FB69002B01D0FB6945E0BB68BB61BB698D
:1057D0007A685A60FB68D3F8B021BB691A60FB682D
:1057E000BA69C3F8B021BB6908337B617B690022C9
:1057F0001A607B6908225A607869FFF776FC78693D
:10580000FFF793FC7861BB6903F108027B691A60BA
:105810007B68A3F118027B695A607969F868FFF721
:105820002FFF0346002B02D04FF0FF3313E07869BF
:10583000FFF77BFC38613B697A691A603B69082293
:105840005A603869FFF751FCFB68D3F8B431184649
:10585000FEF75CFD002318462037BD4680BD80B5AD
:105860008AB000AFF860B9607A603B60B868FFF753
:1058700078FC38623A6A7B6813445A1E7B685B4244
:105880001340FB61BB687B62FA693B6A9A4227D08E
:10589000FA69BB68D31A182B04D8B968F869FFF7FE
:1058A00083FC1DE0FB69083B7B627B6ABA681A6077
:1058B000BB685B68796ABA688A1A9A1A7B6A5A6006
:1058C000786AFFF732FC02467B6A13607A6ABB682B
:1058D000D31A1A46BB685A60B968F868FFF7D0FE59
:1058E0007B6A5B68F9697A6A8A1A9B1ABB61BA6932
:1058F0003B68D31A0F2B1ED97B6A5A683968BB697B
:10590000CB1A1A447B6A5A60FA693B681344BB603D
:10591000BB687A6A1A60BA693B68D21ABB685A6077
:10592000B868FFF702FC78617B69BA681A60B968E9
:10593000F868FFF7A5FEFB6803F5DC73796A184683
:10594000FFF734FE786AFFF7D0FBFB69184628376B
:10595000BD4680BD80B586B000AFF860B9607A60A2
:1059600000237B61FB68002B01D1002344E0BB686E
:105970005A1EBB681340002B01D000233CE07B681B
:10598000002B01D07B6800E001237B60BB68042B07
:1059900038BF0423BB607B68072B01D808237B60DA
:1059A0007B68033323F003037B60FB68D3F8B431D7
:1059B0004FF0FF311846FEF7D1FB0346002B01D014
:1059C000002319E07A68BB68134404331946F86869
:1059D000FFF787FE38613B69002B06D07B68BA6809
:1059E0003969F868FFF73BFF7861FB68D3F8B43199
:1059F0001846FEF78BFC7B6918461837BD4680BDFC
:105A000080B582B000AF786039603A680421786868
:105A1000FFF7A0FF034618460837BD4680BD80B596
:105A200086B000AF786039607B68002B02D14FF000
:105A3000FF335EE03B68002B01D1002359E038685A
:105A4000FFF79BFB78617B68D3F8B4314FF0FF31EF
:105A50001846FEF783FB0346002B02D04FF0FF33BE
:105A600047E07869FFF751FB7B6803F5DC737969E0
:105A70001846FFF7D5FD7869FFF767FBF86078698E
:105A8000FFF753FB3861F868FFF71CFB0346002B58
:105A90000CD0F9687868FFF70FFEFB685A687B69DD
:105AA0005B681A44FB685A60FB687B613869FFF7E2
:105AB00009FB0346002B0ED039697868FFF7FCFD1F
:105AC0007B695A683B695B681A447B695A607869EC
:105AD000FFF72BFB38613B697A691A60796978684E
:105AE000FFF7CEFD7B68D3F8B4311846FEF70EFC05
:105AF000002318461837BD4680BD80B58AB000AF78
:105B0000F860B9607A60BB68002B05D17968F868E5
:105B1000FFF776FF034680E07B68002B05D1B9686C
:105B2000F868FFF77CFF002377E07B68072B02D83B
:105B300008237B6004E07B68073323F007037B6066
:105B4000B868FFF71AFB3862386AFFF7EEFA786236
:105B50007A6ABB68D31AFB61FA697B689A4212D2EF
:105B60007968F868FFF74CFF38613B69002B08D073
:105B7000FA69B968386908F012FAB968F868FFF785
:105B80004EFF3B6949E0FA697B68D31ABB61BB6988
:105B90000F2B01D8BB6840E0BB695B427A6A1344B3
:105BA0007B617B693A6A1A60FB68D3F8B4314FF0C5
:105BB000FF311846FEF7D2FA0346002B01D0BB682E
:105BC0002BE03B6A5A68BB69D21A3B6A5A60786A12
:105BD000FFF778FA0346002B0ED07B6A5A68BB6940
:105BE0001A447B695A60796AF868FFF765FD78693D
:105BF000FFF79BFA786202E07B69BA695A607B6AB8
:105C00007A691A607969F868FFF73AFDFB68D3F89A
:105C1000B4311846FEF77AFBBB6818462837BD46F4
:105C200080BD000080B584B000AF78607B68083329
:105C3000FB60144808F034FE134808F031FEFB689E
:105C40005B6823F00102FB685B6803F00103002B33
:105C500001D10E4B00E00E4BF9680E4808F020FE13
:105C6000FB681B68002B03D0FB685B68092B04D022
:105C7000F868FFF75AFAF860E1E700BF00BF103795
:105C8000BD4680BD201001084010010864100108C5
:105C90006C1001087810010880B586B002AF7860FA
:105CA0000B46FB707B68D3F8B031FB60FB78002BB0
:105CB00002D0394808F0F4FD7B68D3F8B4314FF0D6
:105CC000FF311846FEF74AFA0346002B60D1FB78F5
:105CD000002B09D005E0F868FFF7A4FFFB681B68FC
:105CE000FB60FB68002BF6D12C4808F0D9FD2C484E
:105CF00008F0D6FD2B4808F0D3FD2B4808F0D0FD66
:105D00007B68D3F8BC117B68D3F8B8311A462748B2
:105D100008F0C6FD7B68D3F8C4117B68D3F8C031A6
:105D20001A46234808F0BCFD224808F0B9FD7B68FC
:105D3000D3E97A017B68D3E97823CDE900230246D1
:105D40000B461D4808F0ACFD7B68D3E976017B6803
:105D5000D3E97423CDE9002302460B46174808F027
:105D60009FFD7B68D3F8C8311946154808F098FDA7
:105D70007B681846FFF78DFB03461946114808F06B
:105D80008FFD7B68D3F8B4311846FEF7BFFA00E008
:105D900000BF1037BD4680BD88100108A41001085F
:105DA000B4100108DC1001080411010810110108E9
:105DB0002411010838110108481101086011010877
:105DC00078110108A411010880B584B000AF786093
:105DD00039607B6803F003033A68D31A3B603B6881
:105DE00023F003033B607B6823F003037B607B6845
:105DF000002B03D03B68B3F50C7F01D8012314E0DE
:105E00007B68FB60F868FFF783FCFB6803F50C71A7
:105E10003B68A3F50C731A46F868FFF79EFC03462F
:105E2000002B01D0012300E0002318461037BD46A7
:105E300080BD000080B582B000AF1A4B7B607B68EC
:105E40001B6818467B685A687B681B68D31A19461A
:105E5000FFF7BAFF38603B68002B01D03B681DE0BC
