:020000040800F2
:10000000000000004104000871B800087FB8000833
:1000100085B800088BB8000891B8000800000000FF
:1000200000000000000000000000000097B8000879
:100030001D140008000000005911000829140008D0
:10004000291400082914000829140008291400089C
:10005000291400082914000829140008291400088C
:10006000291400082914000829140008291400087C
:10007000291400082914000829140008291400086C
:1004000010B5054C237833B9044B13B10448AFF34E
:1004100000800123237010BDF801002000000000BF
:10042000ECE3000808B5034B1BB103490348AFF3E5
:10043000008008BD00000000FC010020ECE3000883
:1004400072B6DFF840D01048016841F470010160D5
:100450000E490F4A0F4B914204D053F8040B41F858
:10046000040BF8E74FF000000B490C4A914202D010
:1004700041F8040BFAE70BF0C5F90CF0FBF90BF0AF
:1004800095F9FEE70000012088ED00E00000002063
:10049000F801002008420108F8010020DC1B0020C0
:1004A00010F8012B11F8013B012A28BF9A42F7D01E
:1004B000D01A7047034613F8012B002AFBD1181AF3
:1004C000013870470000000000000000000000003C
:1004D00001F0FF01102A2BDB10F0070F08D010F8F5
:1004E000013B013A8B422DD010F0070F42B3F6D1F9
:1004F000F0B441EA012141EA014122F007047FF012
:1005000000070023F0E80256083C85EA010586EA68
:10051000010685FA47F5A3FA87F586FA47F6A5FAA4
:1005200087F68EB9EED1F0BC01F0FF0102F00702B0
:1005300032B110F8013B013A83EA010313B1F8D15B
:100540000020704701387047002D06BF354603383C
:10055000073815F0010F07D1013015F4807F02BF75
:10056000013015F4C03F0130F0BC0138704700BFC6
:1005700053B94AB9002908BF00281CBF4FF0FF310A
:100580004FF0FF3000F072B9ADF1080C6DE904CE08
:1005900000F006F8DDF804E0DDE9022304B070475E
:1005A0002DE9F047089E04468846002B4BD18A422D
:1005B000154667D9B2FA82F24AB1C2F1200701FAB0
:1005C00002F320FA07F7954047EA030894404FEA00
:1005D000154E230CB8FBFEF71FFA85FC0EFB17889F
:1005E00043EA084307FB0CF1994209D9EB1807F1DC
:1005F000FF3080F01B81994240F21881023F2B446A
:100600005B1AA4B2B3FBFEF00EFB103344EA0344C2
:1006100000FB0CFCA44509D92C1900F1FF3380F034
:100620000781A44540F2048102382C4440EA074087
:10063000A4EB0C0400271EB1D4400023C6E90043FC
:100640003946BDE8F0878B4209D9002E00F0EB80D7
:100650000027C6E9000138463946BDE8F087B3FAFD
:1006600083F7002F47D18B4202D3824200F2FA80F7
:10067000841A61EB030301209846002EE0D0C6E9FE
:100680000048DDE702B9FFDEB2FA82F2002A40F04C
:100690008F80491B4FEA154E1FFA85F80127B1FBE1
:1006A000FEFC230C0EFB1C1143EA014308FB0CF17A
:1006B000994207D9EB180CF1FF3002D2994200F2AF
:1006C000CD808446591AA3B2B1FBFEF00EFB101484
:1006D00043EA044408FB00F8A04507D92C1900F1AF
:1006E000FF3302D2A04500F2B6801846A4EB0804FE
:1006F00040EA0C409FE7C7F1200CBB4022FA0CFEF9
:100700004EEA030E01FA07F420FA0CF521FA0CF375
:100710004FEA1E482543B3FBF8F92C0C08FB1933AC
:100720001FFA8EFA44EA034309FB0AF49C4202FAD8
:1007300007F200FA07F10BD91EEB030309F1FF30B2
:1007400080F087809C4240F28480A9F102097344C2
:100750001B1BADB2B3FBF8F008FB103345EA0344B2
:1007600000FB0AFAA24508D91EEB040400F1FF338E
:100770006BD2A24569D90238744440EA0940A0FB13
:100780000289A4EB0A044C45C2464B4654D351D0CF
:10079000002E69D0B1EB0A0564EB030404FA0CFCEB
:1007A000FD40FC404CEA0505C6E90054002747E738
:1007B000C2F1200320FA03F7954001FA02F021FA72
:1007C00003F34FEA154E3843010CB3FBFEF71FFA53
:1007D00085F80EFB173341EA034107FB08F38B4210
:1007E00004FA02F407D9691807F1FF3C2FD28B42B3
:1007F0002DD9023F2944CB1A81B2B3FBFEF00EFB88
:10080000103341EA034100FB08F38B4207D9691812
:1008100000F1FF3C17D28B4215D902382944C91A7E
:1008200040EA07473BE73746304609E70746E7E631
:100830001846FBE64145ABD2B8EB020A69EB0E0263
:1008400001381346A4E76046E9E7184695E767468E
:10085000D1E781467CE702382C4447E7ACF1020C33
:100860002B442FE7384608E73746E9E6704700BFD4
:1008700080B58AB000AFF860B9607A600023BB61D0
:1008800000237B6200233B62FB681B68BB61FB6843
:100890007A6A1A607B68002B01D17B6A40E0786835
:1008A000FFF708FE03467B617B683B6209E03B6A19
:1008B0001B78202B02D13B6A00221A703B6A01335D
:1008C0003B627B697A6813443A6A9A42EFD3002309
:1008D000FB777B683B6219E03B6A1B78002B0FD0EB
:1008E000FB7F002B0CD17A6ABB699A4208DA7B6ADB
:1008F0009B00BA6813443A6A1A607B6A01337B62D0
:100900003B6A1B78FB773B6A01333B627B697A6801
:1009100013443A6A9A42DFD3FB687A6A1A607B6AA8
:1009200018462837BD4680BD80B487B000AFF86058
:10093000B9607A603B604FF0FF337B61FB68002B4E
:1009400001D17B690EE0FB68BA681A60FB687A68BF
:100950005A60FB683A6A9A60FB683A68DA6000237A
:100960007B617B6918461C37BD465DF8047B704788
:1009700080B58AB000AFF860B9607A604FF0FF339D
:10098000FB61FB68002B05D0BB68002B02D07B68A5
:10099000002B01D1FB6998E0FB689A68FB685B68F3
:1009A0009A4203D10023FB61FB698EE0FB685A6821
:1009B000FB689B68D31A7A689342A8BF1346FB6111
:1009C000FB697B62BB683B62FB68DA68FB689B681B
:1009D0001A44FB685B689A4224DDFB68DA68FB68AE
:1009E0009B681344FA68526893FBF2F102FB01F230
:1009F0009B1ABB617B6A7B61FB681A68BB69134405
:100A00003B617B691A46396A38690BF066FFFB68FF
:100A10009A687B691A44FB689A607A6A7B69D31A80
:100A20007B622EE0FB68DA68FB689B681A447B6A8D
:100A30001A44FB685B689A4223DDFB68DA68FB684E
:100A40009B681344BB61FB685A68BB69D31A7B611E
:100A5000FB681A68BB6913443B617B691A46396AB3
:100A600038690BF03AFF7B693A6A13443B62FB68D2
:100A70009A687B691A44FB689A607A6A7B69D31A20
:100A80007B627B6A002B1FDDFB68DA68FB689B6872
:100A90001344FA68526893FBF2F102FB01F29B1ACD
:100AA000BB617B6A7B61FB681A68BB6913443B616D
:100AB0007B691A46396A38690BF00FFFFB689A6840
:100AC0007B691A44FB689A60FB6918462837BD4663
:100AD00080BD80B58AB000AFF860B9607A604FF031
:100AE000FF33FB61FB68002B05D0BB68002B02D0F5
:100AF0007B68002B01D1FB6969E0FB689B68002BD8
:100B000003D10023FB61FB6961E0FB689B687A68A5
:100B10009342A8BF1346FB61FB697B62BB683B62E3
:100B2000FB68DA687B6A1A44FB685B689A422EDBD2
:100B3000FB68DB68BB61FB685A68FB68DB68D31A3B
:100B40007B61FB681A68BB6913443B617B691A4689
:100B50003969386A0BF0C1FEFB68DA687B691344B7
:100B6000FA68526893FBF2F102FB01F29A1AFB68F1
:100B7000DA60FB689A687B69D21AFB689A607A6AC5
:100B80007B69D31A7B627B693A6A13443B627B6A56
:100B9000002B1BDDFB68DB68BB617B6A7B61FB684C
:100BA0001A68BB6913443B617B691A463969386A24
:100BB0000BF093FEFB68DA687B691A44FB68DA6025
:100BC000FB689A687B69D21AFB689A60FB691846D1
:100BD0002837BD4680BD80B485B000AF78604FF047
:100BE000FF33FB607B68002B02D07B689B68FB6057
:100BF000FB6818461437BD465DF8047B704780B427
:100C000085B000AF78604FF0FF33FB607B68002B4E
:100C100007D07B6800229A607B680022DA6000239C
:100C2000FB60FB6818461437BD465DF8047B7047CF
:100C300080B485B000AF78604FF0FF33FB60084BA5
:100C40001B68002B04D1064A7B6813600023FB60FD
:100C5000FB6818461437BD465DF8047B704700BF3B
:100C60001402002090B589B002AFF860B9607A60D4
:100C70003B6000237B61114B1B68002B18D00F4B8E
:100C80001B685B68002B13D00C4B1B685B681B68F0
:100C9000002B0DD0094B1B685B681C68FB6A019335
:100CA000BB6A00933B687A68B968F868A0477861C6
:100CB0007B6918461C37BD4690BD00BF140200205A
:100CC00080B582B000AF78600C4B1B68002B11D050
:100CD0000A4B1B685B68002B0CD0084B1B685B68D9
:100CE000DB68002B06D0054B1B685B68DB68786807
:100CF000984700BF00BF0837BD4680BD14020020E2
:100D000080B584B000AF78600023FB600D4B1B689A
:100D1000002B11D00B4B1B685B68002B0CD0094BD0
:100D20001B685B681B69002B06D0064B1B685B6861
:100D30001B6978689847F860FB6818461037BD460D
:100D400080BD00BF1402002080B584B000AF786081
:100D50000023FB600D4B1B68002B11D00B4B1B6855
:100D60005B68002B0CD0094B1B685B685B69002B30
:100D700006D0064B1B685B685B6978689847F8602B
:100D8000FB6818461037BD4680BD00BF1402002026
:100D900080B584B000AF78600023FB600D4B1B680A
:100DA000002B11D00B4B1B685B68002B0CD0094B40
:100DB0001B685B689B69002B06D0064B1B685B6851
:100DC0009B6978689847F860FB6818461037BD46FD
:100DD00080BD00BF1402002080B584B000AF7860F1
:100DE0000023FB600D4B1B68002B11D00B4B1B68C5
:100DF0005B68002B0CD0094B1B685B68DB69002B20
:100E000006D0064B1B685B68DB6978689847F8601A
:100E1000FB6818461037BD4680BD00BF1402002095
:100E200080B586B000AFF860B9607A6000237B615E
:100E30000E4B1B68002B13D00C4B1B685B68002B00
:100E40000ED00A4B1B685B681B6A002B08D0074B4F
:100E50001B685B681B6A7A68B968F86898477861AC
:100E60007B6918461837BD4680BD00BF14020020BC
:100E700080B584B000AF786039600023FB600E4B12
:100E80001B68002B12D00C4B1B685B68002B0DD02D
:100E9000094B1B685B685B6A002B07D0064B1B681D
:100EA0005B685B6A396878689847F860FB68184641
:100EB0001037BD4680BD00BF1402002080B584B04D
:100EC00000AF78600023FB600D4B1B68002B11D036
:100ED0000B4B1B685B68002B0CD0094B1B685B68D5
:100EE0009B6A002B06D0064B1B685B689B6A786880
:100EF0009847F860FB6818461037BD4680BD00BFB4
:100F00001402002080B584B000AF78600023FB603D
:100F10000D4B1B68002B11D00B4B1B685B68002B23
:100F20000CD0094B1B685B68DB6A002B06D0064BB4
:100F30001B685B68DB6A78689847F860FB6818464E
:100F40001037BD4680BD00BF1402002080B584B0BC
:100F500000AF78600023FB600D4B1B68002B11D0A5
:100F60000B4B1B685B68002B0CD0094B1B685B6844
:100F70001B6B002B06D0064B1B685B681B6B7868ED
:100F80009847F860FB6818461037BD4680BD00BF23
:100F90001402002080B582B000AF78600C4B1B6853
:100FA000002B11D00A4B1B685B68002B0CD0084B40
:100FB0001B685B685B6B002B06D0054B1B685B688E
:100FC0005B6B7868984700BF00BF0837BD4680BD9F
:100FD0001402002080B584B000AF78600023FB606D
:100FE000114B1B68002B1AD00F4B1B685B68002B42
:100FF00015D00D4B1B685B681B6B002B0FD00A4B89
:101000001B685B681B6B78689847F860FB68002B6F
:1010100005D07B681A460021F8680BF069FCFB6874
:1010200018461037BD4680BD1402002080B584B03C
:1010300000AF786039600023FB600E4B1B68002B0B
:1010400012D00C4B1B685B68002B0DD0094B1B6842
:101050005B689B6B002B07D0064B1B685B689B6B28
:10106000396878689847F860FB6818461037BD46BD
:1010700080BD00BF1402002080B582B000AF4FF0E9
:10108000FF337B600C4B1B68002B10D00A4B1B6896
:101090005B68002B0BD0084B1B685B681B6C002B3C
:1010A00005D0054B1B685B681B6C984778607B68B4
:1010B00018460837BD4680BD1402002080B400AF3A
:1010C00000231846BD465DF8047B704772B615488C
:1010D0001549026841EA0201016014484FF001011C
:1010E000016013484168016001688A884FF010036D
:1010F00042EA03028A80D1F800C04FF002030CF1EB
:10110000240C0CF1040CDCF80000DCF814E0DCF832
:1011100018200CF1200C8CF3098862B683F3148834
:10112000104700BF20ED00E00000FFFFE4170020A3
:10113000DC170020EFF3108072B6704700BF18462E
:1011400080F31088704700BF02484FF08051016063
:10115000704700BF04ED00E0EFF3108C72B6194A3F
:10116000126822B12DE900509047BDE80050EFF31E
:1011700009801EF0100F01D120ED108B40F804ED16
:1011800020E9F01F104D4FF010082E683060B7882E
:1011900027EA0807B78068682860878847EA080751
:1011A00087800168B1E8F01F51F804EB1EF0100FC2
:1011B00001D1B1EC108B81F309888CF31088704752
:1011C00000BF000020020020DC17002080B483B0A4
:1011D00000AF03463960FB7197F90730002B0ADB3B
:1011E0003B68DAB20C4997F907301201D2B20B44CE
:1011F00083F800230AE03B68DAB20849FB7903F080
:101200000F03043B1201D2B20B441A7600BF0C3715
:10121000BD465DF8047B704700E100E000ED00E0B2
:1012200080B582B000AF78607B68013BB3F1807F0E
:1012300001D301230FE00A4A7B68013B53600F2171
:101240004FF0FF30FFF7C2FF054B00229A60044BBE
:1012500007221A60002318460837BD4680BD00BF2C
:1012600010E000E090B585B002AF1D4B1B68002B6D
:1012700004D01B4B1B68B3F57A7F01D2194B2AE0CF
:1012800000230093184B002207214FF0FF3000F09D
:101290000FF9134B1B68154AA2FB03239B09144A41
:1012A0001360144A4FF000034FF00004C2E9003409
:1012B0000B4B1B680D4AA2FB03239B091846FFF743
:1012C000AFFF78607B68012B01D10B4B03E00B4B28
:1012D00001221A60002318460C37BD4690BD00BF9E
:1012E0001000002000040002C52D0008D34D62103C
:1012F0005819002050190020020400022802002082
:1013000080B485B000AF78607B6803F00703FB60B2
:101310000C4BDB68BB60BA684FF6FF031340BB6041
:10132000FB681A02BB68134343F0BF6343F4003306
:10133000BB60044ABB68D36000BF1437BD465DF88C
:10134000047B704700ED00E080B483B000AF03463B
:10135000FB7197F90730002B0BDBFB7903F01F02C1
:10136000074997F907305B09012000FA02F241F8BA
:10137000232000BF0C37BD465DF8047B704700BFDB
:1013800000E100E080B483B000AF03463960FB7138
:1013900097F90730002B0ADB3B68DAB20C4997F962
:1013A00007301201D2B20B4483F800230AE03B68F5
:1013B000DAB20849FB7903F00F03043B1201D2B201
:1013C0000B441A7600BF0C37BD465DF8047B7047AE
:1013D00000E100E000ED00E080B483B000AFEFF387
:1013E00005837B607B6818460C37BD465DF8047B3F
:1013F0007047000080B500AF05480BF081FAFFF799
:10140000EBFF03461A46034903480BF079FAFEE75F
:1014100098E4000840F30008A0E4000880B500AF9D
:10142000FFF7E8FF00BF80BD80B582B000AFFFF7D7
:1014300081FE7860154B1B680133144A136078688D
:10144000FFF77EFEFFF7C8FF38603B680F3B3B604D
:101450000F4A3B6852F82330002B05D00C4A3B68FA
:1014600052F82330984701E0FFF7C4FFFFF762FE10
:101470007860064B1B68013B044A13607868FFF7ED
:101480005FFE00BF0837BD4680BD00BF18020020C8
:10149000E413002080B500AF034B044A9A60072094
:1014A000FFF72EFF00BF80BD00ED00E00000000848
:1014B00080B586B000AFF8607B600B467B81134639
:1014C0003B817B68002B01D1164B26E0FB68EF2B9C
:1014D00005D9FB68B3F1FF3F01D0134B1DE07B89B9
:1014E000072B01D9114B18E0FFF724FE7861FB6848
:1014F00001330F497A6841F82320FB685BB2184634
:10150000FFF722FFFB685BB27A8911461846FFF7A6
:1015100039FF7869FFF714FE002318461837BD46D7
:1015200080BD00BF01090002000900020509000298
:10153000E413002080B500AFFFF706FE00BF80BDBA
:1015400080B582B000AFFFF7F5FD786000F07CFB5E
:101550000346283B0B4A53600A4B1A68094B5B68E9
:101560009A4209D0084B1B88002B05D17868FFF7F9
:10157000E7FDFFF7E9FD02E07868FFF7E1FD0837D6
:10158000BD4680BDDC170020D817002080B400AF16
:1015900072B6FEE780B586B000AF786039607B68D0
:1015A000DB687B617B689B687A6913443B617B687D
:1015B0009B681A464FF0CA3178690BF099F97B693C
:1015C0004FF0CC321A603B69483B3B613B69FB60A2
:1015D000FB684FF004321A60FB684FF005325A6026
:1015E000FB684FF006329A60FB684FF00732DA6012
:1015F000FB684FF008321A61FB684FF009325A61FC
:10160000FB684FF010329A61FB684FF01132DA61DB
:10161000FB6800221A62FB686FF002025A627B6864
:101620001A69FB689A62FB684FF00132DA62FB6864
:101630004FF002321A63FB684FF003325A63FB68C3
:101640004FF012329A63084AFB68DA63074AFB6874
:101650001A64FB684FF080725A647B683A691A60BA
:1016600000BF1837BD4680BD8D15000891260008C3
:1016700080B584B000AF78600823FB607B68DB68CE
:1016800003F148027B68DA607B68DB68BB60064B6D
:101690001B68FA68B968184602F0C2FF034618468C
:1016A0001037BD4680BD00BFA817002080B582B0AE
:1016B00000AF78607B68184601F06AFA00BF08370F
:1016C000BD4680BD80B58EB000AFF860B9607A606D
:1016D0003B6000237B6300233B6307F11403182264
:1016E000002118460BF004F97B68FB617B6C9BB210
:1016F0003B83FB687B62BB687B613B683B6207F1B5
:10170000140207F12C031146184601F0CBF8386398
:101710003B6B002B01D07B6B02E0FB6A7B637B6B36
:1017200018463837BD4680BD80B584B000AF7860BC
:101730004FF0FF33FB607B68002B09D07B68BB60F8
:10174000B86801F025F90346002B01D10023FB60A6
:10175000FB6818461037BD4680BD80B400AFFEE779
:1017600080B582B000AF7860786802F071FC034603
:10177000002B01D1012300E0002318460837BD46A5
:1017800080BD80B582B000AF78607B684FF0FF31DC
:10179000184602F019FD0346002B01D1012300E099
:1017A000002318460837BD4680BD80B582B000AF23
:1017B00078607B68184602F0DDFD0346002B01D1FE
:1017C000012300E0002318460837BD4680BD80B5E0
:1017D00082B000AF78607B68184602F095FC034643
:1017E000002B01D1012300E0002318460837BD4635
:1017F00080BD80B584B000AFF860B9607A607B6866
:101800009BB2BA6891B2FA68184602F0B5F903467D
:10181000002B01D1012300E0002318461037BD46FC
:1018200080BD80B582B000AF786039603B68B3F1AD
:10183000FF3F02D14FF0FF333B607B683A681146AF
:10184000184602F053FA0346002B01D1012300E0B1
:10185000002318460837BD4680BD80B582B000AF72
:1018600078607B68184602F0EFFA0346002B01D13E
:10187000012300E0002318460837BD4680BD80B52F
:1018800082B000AF78607B68184602F0D7F9034653
:10189000002B01D1012300E0002318460837BD4684
:1018A00080BD000080B584B000AF78600023FB608D
:1018B0007B68002B07DD064B1B687A6811461846CB
:1018C00002F08BFEF860FB6818461037BD4680BDFD
:1018D000A817002080B582B000AF7860044B1B6869
:1018E0007968184602F0ACFE00BF0837BD4680BDDF
:1018F000A817002098B500AF03F064FF03464FF02F
:1019000000041846214698BD80B400AFFEE70000F1
:1019100080B582B000AF4FF0FF337B600448FFF723
:1019200087F978607B6818460837BD4680BD00BFE0
:1019300098F3000880B400AF034B10221A6000BF78
:10194000BD465DF8047B7047D417002080B582B097
:1019500000AFFFF787FC78607B68002B07D0074853
:101960000AF0CEFF06480BF053F87B6802E0FFF761
:10197000ADFB7B6818460837BD4680BDB8E400085B
:10198000C0E4000880B582B000AFFFF7D3FF02F0DB
:10199000B7FD78607B68002B08D02B480AF0B0FFB9
:1019A00079682A480AF0ACFF7B6848E0FFF772FDCF
:1019B00000F0EAFC78607B68002B07D022480AF030
:1019C0009FFF23480BF024F87B6838E000F044FECA
:1019D00002F094F878607B68002B01D07B682EE0E1
:1019E00002F0FEFA78607B68002B01D07B6826E06D
:1019F00001F01AFD78607B68002B07D012480AF0CE
:101A00007FFF14480BF004F87B6818E001F054FAEB
:101A100078607B68002B07D00B480AF071FF0E48F6
:101A20000AF0F6FF7B680AE000F056F900F044FD8A
:101A300078607B68002B01D07B6800E000231846AB
:101A40000837BD4680BD00BFB8E40008D4E40008F4
:101A5000F0E4000804E5000818E5000890B400AFC1
:101A6000034BD3E9003418462146BD4690BC70476D
:101A70005019002080B483B000AF78607B687A682A
:101A80005A607B687A681A6000BF0C37BD465DF803
:101A9000047B704780B483B000AF786039607B68A6
:101AA0005A683B685A603B687A681A607B685B6872
:101AB0003A681A607B683A685A6000BF0C37BD46C6
:101AC0005DF8047B704780B582B000AF7860396004
:101AD0007B681B6839681846FFF7DCFF00BF0837D2
:101AE000BD4680BD80B483B000AF78607B685B6822
:101AF0007A6812681A607B681B687A6852685A6054
:101B00007B6800225A607B6800221A6000BF0C3795
:101B1000BD465DF8047B704780B483B000AF786049
:101B20007B685B687A689A420CBF01230023DBB2B2
:101B300018460C37BD465DF8047B704780B582B00F
:101B400000AF00237B6000233B604FF480733B6059
:101B5000114B1B683968184602F03FFD02460F4BD7
:101B60001A600E4B1B68002B11D000237B600AE02B
:101B70000A4B1A687B68DB0013441846FFF77AFFAC
:101B80007B6801337B607B681F2BF1D900E000BFCD
:101B90000837BD4680BD00BFA8170020AC17002045
:101BA00080B582B000AF78603960104B1A683B682E
:101BB000DB0013441846FFF7AFFF0346002B08D0A5
:101BC0004FF000423B68DA40094B1B681343084A58
:101BD0001360064B1A683B68DB00134479681846AB
:101BE000FFF771FF00BF0837BD4680BDAC1700206E
:101BF0001C02002080B584B000AF78607868FFF7E1
:101C000071FF7B68283BFB600D4B1A68FB68DB8823
:101C1000DB0013441846FFF77FFF0346002B0BD071
:101C2000FB68DB881A464FF00043D340DA43054B8C
:101C30001B681340034A136000BF1037BD4680BDC8
:101C4000AC1700201C02002080B483B000AF00233A
:101C50007B600B4B1B68002B0BD0094B1B68B3FA46
:101C600083F37B60074B1A687B68DB0013445B6877
:101C700000E0002318460C37BD465DF8047B704732
:101C80001C020020AC17002080B485B000AF786043
:101C90000023FB600023BB600E4B1A687B68DB00EF
:101CA00013445B68BB6005E0FB680133FB60BB6805
:101CB0005B68BB60074B1A687B68DB001344BA683B
:101CC0009A42F1D1FB6818461437BD465DF8047B93
:101CD000704700BFAC17002080B400AF054B002256
:101CE0001A60044B0A22DA8000BFBD465DF8047B0F
:101CF000704700BFB017002098B500AF124B1A68AC
:101D0000124B1B689A420FD0104B1B680E4A13608F
:101D10000F4BD3E900349AB20B4BDB8813449BB2D0
:101D2000013B9AB2084B9A80074B9A88084BD3E93B
:101D300000349BB29A4204D1034B00221A6000F097
:101D4000EBFF00BF98BD00BFB0170020DC170020DC
:101D50005019002080B483B000AF78607B687A6847
:101D60005A607B687A681A6000BF0C37BD465DF820
:101D7000047B704780B483B000AF786039607B68C3
:101D80005A683B685A603B687A681A607B685B688F
:101D90003A681A607B683A685A6000BF0C37BD46E3
:101DA0005DF8047B704780B582B000AF7860396021
:101DB0007B681B6839681846FFF7DCFF00BF0837EF
:101DC000BD4680BD80B483B000AF78607B685B683F
:101DD0007A6812681A607B681B687A6852685A6071
:101DE0007B6800225A607B6800221A6000BF0C37B3
:101DF000BD465DF8047B704780B483B000AF786067
:101E00007B685B687A689A420CBF01230023DBB2CF
:101E100018460C37BD465DF8047B704780B400AFB0
:101E2000FEE780B582B000AF78600B467B807B68B0
:101E30009B8803F00403002B1FD07B6828331846CF
:101E4000FFF7D8FE7B689B8823F004039AB27B6877
:101E50009A807B687A88DA807B689B8843F00403E9
:101E60009AB27B689A807B6803F128027B68DB88E2
:101E700019461046FFF794FE02E07B687A88DA8004
:101E800000BF0837BD4680BD80B586B000AF786022
:101E900039603B6803F01F03FB603B685B093B61F3
:101EA000FB68002B02D13B69013B3B617B689B6B6C
:101EB00003F078423B691A437B689A63354B9B88F1
:101EC0001A46FB681344FB60FB6803F01F03FB60CA
:101ED0007B689B6B23F07842FB68DB061A437B68C8
:101EE0009A632C4B1A68FB68DB001344BB60BB6829
:101EF0005B68BA689A4206D17B6830331946B86885
:101F0000FFF751FF41E0BB685B68303B7B617B6959
:101F10009B6B23F078427B689B6B23F078439A425B
:101F200010D87B689B6B03F078427B689B6B23F037
:101F300078417B699B6B23F07843CB1A1A437B680B
:101F40009A6310E07B699B6B03F078427B699B6B23
:101F500023F078417B689B6B23F07843CB1A1A43BC
:101F60007B699A6308E07B695B6B303B7B617B69D3
:101F70003033BA689A42CAD17B6903F130027B6878
:101F8000303319461046FFF70EFF00BF1837BD4625
:101F900080BD00BFC817002080B586B000AF786054
:101FA0007B689B6BDB0E7B61134B1A687B69DB00E4
:101FB00013443B617B685B6B3A699A4213D07B6840
:101FC0005B6B303BFB60FB689B6B03F07842FB680C
:101FD0009B6B23F078417B689B6B23F078430B4429
:101FE0001A43FB689A637B6830331846FFF7EAFEB2
:101FF00000BF1837BD4680BDC817002080B584B02B
:1020000000AF0023BB604F4B9B8801335A4203F063
:102010001F0302F01F0258BF53429AB2494B9A80E5
:10202000484B1A68474B9B88DB0013447B607B68F6
:102030005B687A689A4200F081807B685B68303B1D
:10204000FB6070E0FB689B887B80FB689B6B23F0E8
:102050007843002B05D0FB689B6B5A1EFB689A6384
:1020600066E0FB6830331846FFF7ACFE7B8803F070
:1020700008039BB2002B12D0FB689B8823F0080357
:102080009AB2FB689A80FB6828331846FFF79AFEDD
:10209000FB6800229A61FB680022DA6127E07B88F6
:1020A00003F480639BB2002B07D0FB689B8823F46A
:1020B00080639AB2FB689A8019E07B8803F400532E
:1020C0009BB2002B0CD0FB6828331846FFF77AFE32
:1020D000FB689B8823F400539AB2FB689A8006E061
:1020E000FB689B8823F020039AB2FB689A807B8868
:1020F00003F002039BB2002B11D1FB689B8843F0D5
:1021000004039AB2FB689A80FB6803F12802FB681B
:10211000DB8819461046FFF743FD0123BB607B684F
:102120005B68303BFB60FB6830337A689A4289D148
:10213000BB68002B03D0FFF703FA00E000BF1037A5
:10214000BD4680BDC817002080B483B000AF0346F1
:10215000FB80FB8803F010039BB2002B01D0204BC7
:1021600038E0FB8803F004039BB2002B01D01D4B29
:1021700030E0FB8803F020039BB2002B01D01A4B08
:1021800028E0FB8803F008039BB2002B09D0FB88F2
:1021900003F040039BB2002B01D0144B1AE0144B08
:1021A00018E0FB8803F002039BB2002B01D0114B17
:1021B00010E0FB8803F400539BB2002B09D0FB888E
:1021C00003F040039BB2002B01D00B4B02E00B4B02
:1021D00000E00B4B18460C37BD465DF8047B70479A
:1021E0002CE5000834E500083CE5000844E500085B
:1021F00050E5000858E5000860E5000874E50008AF
:1022000080E5000880B586B000AF78601C4B1A6886
:102210007B68542101FB03F31344FB60FB68DB681C
:102220001B68B3F1CC3F1AD1FB68DB6804337B61D8
:1022300002E07B6904337B61FB681B687A699A4220
:1022400004D27B691B68B3F1CA3FF2D0FB689A687D
:10225000FB68D9687B69CB1A13443B610BE00948E2
:102260000AF04EFBFB685B6A194607480AF048FB18
:102270004FF0FF333B613B6918461837BD4680BDC0
:10228000D01700208CE5000894E500082DE9F04106
:102290008AB006AF34480AF033FB34480AF030FB0A
:1022A00033480AF02DFB31480AF02AFB0023FB607B
:1022B0004FE0304B1A68FB68542101FB03F31344D1
:1022C000BB60BB689B8803F00103002B3DD1BB685A
:1022D0005D6ABB681E69BB68DB889846BB689B88E3
:1022E0001846FFF731FF7860BB689C68BB681B69C4
:1022F0001846FFF787FF0146BB681B681846BB6896
:10230000DB68BA68926C0592049303900291019481
:102310007B68009343463246294617480AF0F0FA94
:10232000BB689B69002B07D0BB689B69DB8819469B
:1023300012480AF0E5FA04E04FF6FF710F480AF080
:10234000DFFA0F480AF064FB00E000BFFB680133CE
:10235000FB600C4B1B68FA689A42AAD3002318460C
:102360001037BD46BDE8F081B8E5000830E600084A
:1023700034E60008D0170020A8E60008E0E60008D0
:10238000E8E60008D417002080B584B000AF414BC8
:102390001B680133542202FB03F37B603E4B1B6836
:1023A0007968184602F019F902463C4B1A603B4B1B
:1023B0001B68002B01D13A4B67E0384B1B687A68E9
:1023C000002118460AF094FA3648FFF7C3FC364855
:1023D000FFF7C0FC3548FFF7BDFC0023FB6020E0A1
:1023E0002E4B1A68FB68542101FB03F313440122AE
:1023F0009A802A4B1A68FB68542101FB03F31344AB
:10240000FA681A61254B1A68FB68542101FB03F333
:102410001344283319462448FFF7C5FCFB680133F1
:10242000FB60FB680F2BDBD90822002120480AF053
:102430005FFAFFF783FB4FF480737B60164B1B68DA
:102440007968184602F0C9F8B860BB68002B01D162
:10245000134B1AE07A680021B8680AF049FA154A65
:10246000BB681360134B00229A800023FB6008E0D6
:10247000B868FFF76FFCFB680133FB60BB6808338B
:10248000BB60FB681F2BF3D9002318461037BD46ED
:1024900080BD00BFD4170020A8170020D01700204F
:1024A0000002000348190020E8170020C017002090
:1024B000DC170020C817002080B588B000AF3B1D96
:1024C0001822002118460AF013FA0C4B7B604FF4D7
:1024D000A0633B610A4B7B611F233B813B1D194677
:1024E000084800F0DFF9F861FB69002B01D0FB69B7
:1024F00000E0002318462037BD4680BD1D1E0008A1
:10250000ECE60008B817002080B400AF064B1B684B
:10251000002B01D1054B02E0034B1B681B691846D9
:10252000BD465DF8047B7047DC17002007020002FF
:1025300080B500AF414B1B68DB681B68B3F1CC3F33
:102540000CD03F480AF0DCF93C4B1B68596A3B4B06
:102550001B681B691A463B480AF0D2F9374B5B6887
:102560001B681A46354B5B68DB689A420CD9334BC3
:102570005B681B681946314B5B68DA682F4B5B68F8
:102580009B68134499421AD92D480AF0B9F92B4B8C
:102590005B68596A294B5B681B691A462A480AF02E
:1025A000AFF927480AF0ACF9244B5B681B68194661
:1025B000224B5B68DB681A4624480AF0A1F91F4BDE
:1025C0005B681A69224B1B7891B2214A5B00134465
:1025D0000A465A801E4B1B785B0110331C4A134479
:1025E000981D164B5B685B6A202219460AF075F944
:1025F000174B1B78164A5B011344353300221A70BF
:10260000134B1B780133DAB2114B1A70104B1B7845
:102610000A2B09D10E4B00221A700D4B5B7863F028
:102620007F03DAB20A4B5A700A4B1B68002B02D0A8
:10263000084B1B68984700BF80BD00BFDC17002017
:102640008CE50008F8E6000820E7000844E70008E9
:10265000F01700202402002080B500AF4FF4AB72C9
:10266000002107480AF044F9054B0A225A70054B2D
:10267000054A1A60054B00221A6000BF80BD00BFEA
:10268000F01700202002002031250008240200203D
:1026900080B584B000AF78600B4B1A687B6854211A
:1026A00001FB03F31344FB60FB685B69FA68126A81
:1026B00010469847FB681B69184600F069F900BF8F
:1026C0001037BD4680BD00BFD017002080B588B050
:1026D00000AF7860396000237B614FF0FF33BB614E
:1026E0007B68002B01D1634BBFE03B68002B01D11D
:1026F000614BBAE03B681B69002B01D15F4BB4E032
:102700003B681B68002B01D15D4BAEE03B689B88AA
:102710001F2B01D95B4BA8E03B689B881F2B06D180
:102720003B681B68584A934201D0564B9DE03B687A
:10273000DB68002B03D13B684FF43472DA603B68EE
:10274000DB680821184602F0FAFF02463B68DA60AF
:102750003B68DB68B3F5987F01D24C4B85E0FEF710
:10276000E9FCF86119E04A4B5B68283B3B61484B48
:102770005B681846FFF726FB3B6928331946454836
:10278000FFF7F8FA444B1A683B69DB6819461046B4
:1027900001F056FF3B690022DA603D48FFF72CFB51
:1027A0000346002BDFD03B48FFF726FB0346002BF8
:1027B00002D03A4BBB6154E0364B5B68283B3B612F
:1027C000344B5B681846FFF7FDFAF869FEF7B8FC72
:1027D0003B691B697B613868FEF74AFFF860FB685C
:1027E000002B0BD1FEF7A6FCF8613B692833194694
:1027F0002848FFF7BFFA2A4BBB6132E03B689A6872
:102800003B691A62FA683B69DA603B68DA683B69DF
:102810009A603B6900229A613B690022DA613B6958
:1028200002229A803B689A883B69DA803B681A6882
:102830003B695A613B694FF0FF32DA633B69002222
:102840009A643B681A693B695A623B6900221A65BF
:1028500039683869FEF79EFE7B687A691A60002342
:1028600003E0F869FEF76CFCBB6918462037BD46EB
:1028700080BD00BF07020002010200020502000243
:1028800004020002030200021D1E000806020002EC
:10289000C0170020E8170020A8170020110200022E
:1028A00000020003B0B58CB000AF7860396000233F
:1028B000FB623B68002B01D1304B5BE03B6807F1CA
:1028C0000C041D460FCD0FC495E8030084E80300F7
:1028D00007F10C0319467868FFF7F8FEF862FB6A07
:1028E000002B01D0FB6A45E0254B1A687B681B680A
:1028F000542101FB03F31344BB62FEF71BFC786217
:10290000BB6A9B8823F002039AB2BB6A9A80BB6AB7
:102910009B8843F004039AB2BB6A9A80BB6A03F1B6
:102920002802BB6ADB8819461046FFF739F9FFF722
:102930008BF90346283B134A5360134B1B68002B4B
:1029400014D0124B1B88002B10D10E4B1A680D4B64
:102950005B689A420AD00D4B1B88002B06D1786A1F
:10296000FEF7EEFBFEF7E6FD002303E0786AFEF7D4
:10297000E7FB002318463037BD46B0BD0102000218
:10298000D0170020DC170020E4170020D817002003
:1029900080B586B000AF78604FF0FF337B616F4B3E
:1029A0001B687A689A4201D16D4BD3E06D4B1B686E
:1029B0007A689A4201D16C4BCCE06C4B1B687A6808
:1029C0009A4201D36A4BC5E0FEF7B4FB3861FFF7CA
:1029D0009BFD02467B68934202D1664B00221A801F
:1029E000654B1A687B68542101FB03F31344FB60B9
:1029F000FB689B887B817B8903F001039BB2002BE2
:102A000007D05E4B7B6100BF3869FEF799FB7B699D
:102A1000A0E07B8903F010039BB2002B06D0554B3E
:102A20001B88002B02D0534B00221A807B8903F0B5
:102A300004039BB2002B0CD0FB6828331846FFF729
:102A4000D9F8FB689B8823F004039AB2FB689A804C
:102A500010E07B8903F008039BB2002B05D17B8932
:102A600003F400539BB2002B04D0FB6828331846B4
:102A7000FFF7A8F97B8903F060039BB2002B02D01B
:102A8000F868FFF789FAFB689B8823F002039AB283
:102A9000FB689A80FB689B8843F001039AB2FB684D
:102AA0009A80FB684FF0FF32DA63FB6800229A6479
:102AB000FFF7CAF80346283B314A5360FB689B88FE
:102AC00003F010039BB2002B2CD0FB68283319466F
:102AD0002C48FFF768F9284B1A68244B1B685421CF
:102AE00001FB03F31344264A1360254B1B687A68E5
:102AF0001A61234B1B68FA6892889A80204B1B68E6
:102B0000FA68D268DA601E4B1B68FA68526A5A6229
:102B1000FB6801229A803869FEF712FBFEF70AFD76
:102B2000002317E0FB6801229A80FB6828331946CE
:102B30001548FFF71FF9154B1A68FB68DB68194643
:102B4000104601F07DFDFB680022DA603869FEF76F
:102B5000F7FA002318461837BD4680BDB817002085
:102B600014020002BC17002021020002D41700202A
:102B700007020002D8170020D01700200A02000226
:102B8000DC170020C0170020E8170020A81700203D
:102B900080B584B000AF7860FEF71EFC0346002BC2
:102BA00001D01D4B33E01D4B1B88002B01D01C4B6B
:102BB0002DE07B68002B03D100F0AEF8034626E041
:102BC000FEF7B8FAF860174B1B6828331846FFF772
:102BD00011F8144B1B689A88124B1B6822F00402F0
:102BE00092B29A800F4B1B6879681846FFF74CF930
:102BF0000C4B1B689A880B4B1B6842F0200292B268
:102C00009A80F868FEF79CFAFEF79AFC00231846B3
:102C10001037BD4680BD00BF0D020003D81700204D
:102C20000E020002DC17002080B586B000AFF8600D
:102C3000B9607A60184B1B687B617B692833184642
:102C4000FEF7D8FF7B699B8823F004039AB27B6967
:102C50009A807B6928333B617B699A88BB689BB209
:102C600013439AB27B699A803969F868FFF79BF839
:102C70007B68B3F1FF3F0AD07B699B8843F0400338
:102C80009AB27B699A8079687869FFF7FDF800BF8E
:102C90001837BD4680BD00BFDC17002080B582B06C
:102CA00000AF786039607B6828331846FFF78AF8F0
:102CB0007B689A883B689BB2DB439BB213409AB215
:102CC0007B689A807B689B8803F04003002B09D0C7
:102CD0007868FFF761F97B689B8823F040039AB21C
:102CE0007B689A807B689B8803F00203002B0FD1DE
:102CF0007B689B8843F004039AB27B689A807B6868
:102D000003F128027B68DB8819461046FEF748FF6E
:102D100000BF0837BD4680BD80B582B000AF00233C
:102D20007B60244B1B681A69234B1B689A4201D3B2
:102D3000224B3AE01F4B1B689B8803F00403002BD7
:102D400001D1002331E0FEF7F5F93860194B1B681B
:102D5000DB881846FEF798FF78607B68012B20D946
:102D6000144B1B6828331846FFF72CF8114B1B68CF
:102D70009A88104B1B6842F0040292B29A800D4B65
:102D80001B6803F128020B4B1B68DB8819461046B1
:102D9000FEF706FF3868FEF7D3F9FEF7D1FB0023F4
:102DA00003E03868FEF7CCF9054B18460837BD46F6
:102DB00080BD00BFDC170020D417002007020002EE
:102DC0001002000298B500AF0E4B1B68002B09D112
:102DD0000D4BD3E900124B1C42F100040A4AC2E930
:102DE00000340EE0084BD3E900124B1C42F1000402
:102DF000054AC2E90034FEF77FFFFFF7FFF800F055
:102E000099FA98BD28020020501900202DE9904819
:102E100088B000AF08237B60144B18683A1D07F197
:102E200008014FF0FF3300F0BFFDF861FB69002B94
:102E3000F2D17B68082BEFD1BB68002BECD0FEF7FA
:102E40000DFEC7E90401BB68FA6810469847FEF713
:102E500005FE0A460146D7E90434C91A62EB0402AA
:102E60008B469446C7E904BCD6E700BF7019002022
:102E700080B588B000AF3B1D18220021184609F02C
:102E800037FD0A4B7B604FF434733B61084B7B6129
:102E900000233B813B1D19460648FFF703FDF861FF
:102EA000FB6918462037BD4680BD00BF0D2E0008C7
:102EB00078E70008BC17002080B588B002AF402238
:102EC00000212B4809F014FD2A4B00221A604FF410
:102ED000E073BB60284B1B68B968184601F07DFBA6
:102EE00038613B69002B01D1244B3DE0BA680021D9
:102EF000386909F0FDFC224A3B691360214A3B69AD
:102F000013603B6900221A813B69FB603B691C33FB
:102F10003B610123FB820DE03B69FA8A1A81FB6861
:102F20003A691A603B69FB60FB8A0133FB823B69AB
:102F30001C333B61FB8A0F2BEED90823009300233F
:102F4000114A1021002000F0B5FA78607B68002B50
:102F500001D00E4B08E0FFF78BFF78607B68002BF9
:102F600001D00B4B00E0002318461837BD4680BD4A
:102F70002C02002074190020A8170020070300026B
:102F80006C19002068190020701900200B03000242
:102F90000C03000280B48FB000AF786000237B6325
:102FA00000233B634FF0FF33FB624FF0FF33BB6204
:102FB00010237B6210233B620023BB617B681A698C
:102FC0007B68DA607B681B8903F00F03FB82FB8A56
:102FD0009A4A52F8233003F06043B3F1C04F40F0F7
:102FE000B480FB8A954A52F82320FB8A42F00042C3
:102FF000924941F82320FB8A904A52F8233023F06B
:103000007F433B610023FB8354E0FB8B8B4A52F8E8
:10301000233023F07F43FB60FB68002B46D0FA8B04
:10302000FB8A9A4242D0FB8B844A52F8233003F049
:103030004043B3F1404F39D1FA683B699A4218D303
:10304000FB683A69B3FBF2F2396901FB02F29B1AA1
:10305000002B0ED1FA683B69B2FBF3F3FA6A9A428D
:1030600025D9FA683B69B2FBF3F3FB62FB8B7B6209
:103070001DE0FA683B699A4219D23B69FA68B3FBD2
:10308000F2F2F96801FB02F29B1A002B0FD13A69A8
:10309000FB68B2FBF3F3BA6A9A4208D93A69FB6853
:1030A000B2FBF3F3BB62FB8B3B6200E000BFFB8B28
:1030B0000133FB83FB8B0F2BA7D97B6A102B31D0FD
:1030C0005F4B1B683B6314E03B6BDB68BA691344DE
:1030D000BB613B6B19895B4B18687A6A1346DB004E
:1030E0009B1A9B0003441B89994206D03B6B1B68CB
:1030F0003B633B6B002BE7D100E000BF3B6B002B39
:1031000060D07B6819693B6B1A69BB69D31A7A680E
:103110001269B3FBF2F002FB00F29B1ACA1A7B6839
:10312000DA604FE03B6A102B4CD07B680022DA60FB
:10313000444B19683A6A1346DB009B1A9B000B4408
:103140007B637B6B1B683B6357E0FB8A3B4A52F80F
:10315000233003F06043B3F1804F33D1FB8A374A09
:1031600052F82320FB8A42F00042344941F82320E0
:10317000334B1B683B6314E03B6B1A697B681B692C
:103180009A420BD13B6B1B8903F00F032B4A52F879
:10319000233003F04043B3F1404F06D03B6B1B6834
:1031A0003B633B6B002BE7D100E000BF3B6B002B88
:1031B00008D07B680022DA603B6B7B633B6B1B684B
:1031C0003B631AE01E4B1B683B6311E03B6BDA6804
:1031D0007B68DB689A420FD87B68DA683B6BDB68F8
:1031E000D21A7B68DA603B6B7B633B6B1B683B638B
:1031F0003B6B002BEAD100E000BF7B683A6B1A60A2
:103200003B6B002B06D03B6BDA687B68DB68D21A1D
:103210003B6BDA607B6B002B03D1094A7B68136040
:1032200002E07B6B7A681A607B6802221A7100BF29
:103230003C37BD465DF8047B704700BF2C02002080
:10324000741900206C19002080B483B000AF78603E
:103250000B4B1A687B681A60094A7B6813607B68AD
:1032600000221A717B681B8903F00F03054A0021B5
:1032700042F8231000BF0C37BD465DF8047B704751
:10328000681900202C02002080B584B000AF274BC5
:103290001B68FB603EE0FB681B68244A1360FB6808
:1032A0009B697B60FB685B69BB60214B1868391DBB
:1032B0000023082200F09AFBFB685B79002B17D1F2
:1032C000F868FFF7C1FFFB681B894FF6DF72934276
:1032D00006D8FB681B8910339AB2FB681A8116E086
:1032E000FB681B8903F00F039AB2FB681A810EE09A
:1032F000FB685B79012B03D1F868FFF74BFE06E012
:10330000FB685B79022B02D1FB6801221A71074B23
:103310001B68FB60FB68002B03D0FB68DB68002B9D
:10332000B9D000BF1037BD4680BD00BF7419002062
:103330007019002080B500AF084B1B68002B09D026
:10334000064B1B68DA68013ADA60DB68002B01D1B2
:10335000FFF79AFF0023184680BD00BF74190020B4
:1033600080B483B000AF78607B687A685A607B680D
:103370007A681A6000BF0C37BD465DF8047B704761
:1033800080B483B000AF786039607B685A683B686E
:103390005A603B687A681A607B685B683A681A60B2
:1033A0007B683A685A6000BF0C37BD465DF8047B05
:1033B000704780B582B000AF786039607B681B6869
:1033C00039681846FFF7DCFF00BF0837BD4680BDEF
:1033D00080B483B000AF78607B685B687A681268FD
:1033E0001A607B681B687A6852685A607B680022A2
:1033F0005A607B6800221A6000BF0C37BD465DF83A
:10340000047B704780B483B000AF78607B685B68F2
:103410007A689A420CBF01230023DBB218460C37AE
:10342000BD465DF8047B704780B582B000AF1D4B90
:103430001B684FF4DC71184601F0CFF802461A4BB6
:103440001A60194B1B68002B01D1184B25E0164B55
:103450001B684FF4DC720021184609F049FA144841
:10346000FFF77EFF0023FB8013E00F4B1A68FB88F9
:103470002C2101FB03F313443B603B68FA885A811B
:103480003B681C3319460A48FFF793FFFB8801335A
:10349000FB80FB88092BE8D9002318460837BD4676
:1034A00080BD00BFA817002080190020010600027F
:1034B0007819002080B58AB000AFF8607A603B6070
:1034C0000B467B813B8E0433FB847B68002B01D150
:1034D000384B6AE03B8E4FF6FB72934201D9364B74
:1034E00063E07B89002B02D03B8E002B01D1334B54
:1034F0005BE0334B18687B89FA8C02FB03F31946B7
:1035000001F06BF838623B6A002B01D12D4B4CE087
:10351000FDF710FEF8612C48FFF774FF0346002BFF
:103520000AD0F869FDF70CFE254B1B68396A18466E
:1035300001F086F8254B38E0234B5B68BB61B86926
:10354000FFF746FFBB691C3B7B617B697A89DA80A8
:103550007B69FA8C1A817B693A6A1A607B6901225D
:103560009A807B6900221A827B697A895A827B69F8
:1035700000229A817B690022DA817B691433184624
:10358000FFF7EEFE7B691C331846FFF7E9FE7B6907
:1035900024331846FFF7E4FEF869FDF7D1FD7B6997
:1035A0005B891A467B681A60002318462837BD4697
:1035B00080BD00BF0C060002030600020D060002DB
:1035C000A817002002060002781900200406000255
:1035D00080B584B000AFF860B9607A603B60FB688A
:1035E000092B01D90F4B18E0BB68002B02D07B6878
:1035F000002B01D10C4B10E07B681B68002B01D124
:103600000A4B0AE03B68002B06D0FDF7E5FE0346B7
:10361000002B01D0064B00E0002318461037BD46B2
:1036200080BD00BF0E0600020F0600021006000259
:103630001806000280B584B000AFF860B9607A6007
:103640003B60FB68092B01D90D4B15E0BB68002BD3
:1036500001D10C4B10E07B681B68002B01D10A4B99
:103660000AE03B68002B06D0FDF7B6FE0346002BB0
:1036700001D0064B00E0002318461037BD4680BD40
:103680000E060002120600021306000209060002DE
:1036900080B588B000AFF860B9607A603B60002305
:1036A0007B610023FB83BB6803F00303012B19D06C
:1036B000012B02D3032B2AD03EE0FB689B89FB83BE
:1036C000FB689B890133FA68D288934203D1FB6877
:1036D00000229A8137E0FB689B8901339AB2FB682C
:1036E0009A8130E0FB689B89002B06D1FB68DB8860
:1036F000013B9AB2FB689A8105E0FB689B89013B1C
:103700009AB2FB689A81FB689B89FB831BE0FB688C
:10371000DB89FB83FB68DB890133FA68D28893423B
:1037200003D1FB680022DA810DE0FB68DB890133FD
:103730009AB2FB68DA8106E0254809F0E1F82548ED
:1037400009F066F941E0FB681B68FA8BF9680989A2
:1037500001FB02F21344BB61BB6803F00403002BBE
:103760000ED0BB6803F00103002B04D1BB691A68BB
:103770007B681A6029E07B681A68BB691A6024E0DC
:10378000BB6803F00103002B10D1FB681B89043BCD
:10379000BA6913441B687B617B691A46B96978680A
:1037A00009F09BF87A693B681A600EE03B681B6879
:1037B0001A467968B86909F090F8FB681B89043BE0
:1037C000BA6913443A6812681A602037BD4680BD52
:1037D00084E700088CE7000880B58AB000AFF86085
:1037E000B9607A603B6000233B62BB6803F0010371
:1037F000FB61FDF79FFC7862614B1A68FB682C2126
:1038000001FB03F31344BB61BB699B88002B02D10E
:103810005C4B3B62ACE0BB6803F00103002B09D1B9
:103820003B681A68BB691B89043B9A4202D2564B1B
:103830003B629DE0BB6803F00103002B09D03B68AD
:103840001A68BB691B89043B9A4202D94F4B3B6201
:103850008EE0BB69FA69083233F81230002B3AD196
:103860003B6B002B09D1BB6803F00103002B01D196
:10387000474B00E0474B3B627AE0474B1B88002BED
:1038800002D0464B3B6273E0454B1B687B61FB6992
:103890000233DB00BA69134404333A6B4FF400512E
:1038A0001846FFF7C1F9786AFDF74AFCFDF748FEB4
:1038B000FDF740FC78627B699B8803F04003002B96
:1038C00015D07B699B8823F040039AB27B699A806C
:1038D000344B3B624CE0BB69FA69083233F8123072
:1038E000013B99B2BB69FA69083223F812103B68B0
:1038F0007A68B968B869FFF7CBFEFB69002B0CBF8B
:1039000001230023DBB20233DB00BA691344043322
:103910001846FFF777FD0346002B18D1FB69002BF3
:103920000CBF01230023DBB2BA690233DB0013446E
:103930009B68283B3B614FF400513869FFF7AEF9B3
:10394000786AFDF7FDFBFDF7FBFD002314E0FB6942
:10395000002B0CBF01230023DBB2BA6903F108017D
:1039600032F81120013291B2BA69083322F81310EB
:10397000786AFDF7E5FB3B6A18462837BD4680BDEF
:10398000801900200A0600021F0600021506000228
:103990001D06000216060002D817002006060002C7
:1039A000DC1700200706000280B588B002AFF8607F
:1039B000B9607A603B603B687A68B968F868FFF77D
:1039C00007FE78617B69002B01D07B690AE0002348
:1039D0003B613B6800937B68BA683969F868FFF718
:1039E000FBFE034618461837BD4680BD80B588B03B
:1039F00002AFF860B9607A603B603A1D3B68B96815
:103A0000F868FFF717FE78617B69002B01D07B69AE
:103A10000BE003233B613A1D3B6800931346BA68F1
:103A20003969F868FFF7D8FE034618461837BD46CF
:103A300080BD80B483B000AF78607B687A685A60DC
:103A40007B687A681A6000BF0C37BD465DF8047B5E
:103A5000704780B483B000AF786039607B685A6883
:103A60003B685A603B687A681A607B685B683A68B2
:103A70001A607B683A685A6000BF0C37BD465DF833
:103A8000047B704780B582B000AF786039607B6896
:103A90001B6839681846FFF7DCFF00BF0837BD46D2
:103AA00080BD80B483B000AF78607B685B687A6863
:103AB00012681A607B681B687A6852685A607B6873
:103AC00000225A607B6800221A6000BF0C37BD4696
:103AD0005DF8047B704780B483B000AF78607B688A
:103AE0005B687A689A420CBF01230023DBB2184658
:103AF0000C37BD465DF8047B7047000080B582B08E
:103B000000AF1948FFF795FF184B1B684FF4A071E1
:103B1000184600F062FD0246154B1A60144B1B68F4
:103B2000002B01D1134B1BE00023FB8014E0104B52
:103B30001A68FB881B0113443B603B68FA88DA80F3
:103B40003B6800221A803B68083319460648FFF795
:103B500099FFFB880133FB80FB88132BE7D90023F7
:103B600018460837BD4680BD84190020A8170020DC
:103B70008C1900200007000280B58AB002AF03460E
:103B80003A60FB800B46BB803B68002B01D1254B84
:103B900043E0FA88BB889A4204D9234BFB61234B4C
:103BA000BB6131E0FDF7C6FA78612148FFF793FF6A
:103BB0000346002B07D07869FDF7C2FA1D4BFB6165
:103BC0001A4BBB6120E01A4B5B683B613869FFF719
:103BD00068FF3B69083BFB60FB68FA885A80FB681A
:103BE00001221A80FB68BA889A80FB68083318465D
:103BF000FFF71FFFFB68DB881A463B681A6078698D
:103C0000FDF79EFA002308E0002300930023FA69E1
:103C1000B969094801F0B2FDFB6918462037BD4675
:103C200080BD00BF0207000208070002F8C3B2A16E
:103C30008419002003070002A8E7000880B588B0B7
:103C400002AF78607B68132B04D9224B7B61224B37
:103C50003B6132E0214B1A687B681B011344FB6017
:103C6000FDF768FAB860FB681B88002B07D1B868BD
:103C7000FDF766FA174B7B61174B3B611DE0FB6854
:103C800008331846FFF727FF0346002B07D1B86813
:103C9000FDF756FA124B7B610F4B3B610DE0FB6861
:103CA000083319460F48FFF7D4FEFB6800221A803C
:103CB000B868FDF745FA002308E0002300930023CD
:103CC0007A693969084801F059FD7B691846183747
:103CD000BD4680BD01070002F8C3B2A18C190020C7
:103CE0000907000284190020A8E7000880B588B001
:103CF00002AF786039607B68132B09D900230093E9
:103D00000023444A4449454801F038FD414B7CE0DA
:103D1000434B1A687B681B011344FB60FDF70AFAEA
:103D20007861FB681B88002B0CD17869FDF708FAD5
:103D3000002300930023374A3749384801F01EFD1D
:103D4000344B62E0FB685B88002B0AD0FB685B8821
:103D5000013B9AB2FB685A807869FDF7F1F90023BC
:103D600053E03B68002B02D12E4B3B6141E0FDF755
:103D700033FB0346002B08D02B4B3B612B4808F04C
:103D8000BFFD2B4808F044FE33E02A4B1B88002B74
:103D900008D0294B3B61254808F0B2FD274808F0C0
:103DA00037FE26E0264B1B68BB60BB68FA689A6149
:103DB000FB6808333A6808211846FEF735FF786932
:103DC000FDF7BEF9FDF7BCFBBB689B8803F0400321
:103DD000002B0CD0FDF7AEF97861BB689B8823F00F
:103DE00040039AB2BB689A80164B3B6101E0002306
:103DF0000BE07869FDF7A4F90023009300233A69EA
:103E00000549064801F0BAFC3B6918461837BD461B
:103E100080BD00BF01070002F8C3B2A1A8E70008F7
:103E20008C1900200407000205070002BCE7000807
:103E3000C4E70008D817002006070002E4E70008DE
:103E4000DC1700200707000280B588B002AF786059
:103E50002C4B1A687B681B0113447B617B68132B16
:103E600001D9294B49E0FDF765F938617B691B8869
:103E7000002B0CD13869FDF763F900230093002370
:103E8000214A2249224801F079FC1F4B35E07B6929
:103E90009A887B695B889A420CD13869FDF750F9A2
:103EA0000023009300231B4A1849194801F066FCBF
:103EB000184B22E07B6908331846FFF70CFE0346D7
:103EC000002B10D17B69DB68283BFB60FB6800227C
:103ED0009A610821F868FEF7E1FE3869FDF730F9CC
:103EE000FDF72EFB08E07B695B8801339AB27B69A2
:103EF0005A803869FDF724F9002318461837BD4663
:103F000080BD00BF8C19002001070002F8C3B2A1D8
:103F1000A8E700080807000280B483B000AF78600B
:103F20007B687A685A607B687A681A6000BF0C37D1
:103F3000BD465DF8047B704780B483B000AF786005
:103F400039607B685A683B685A603B687A681A60D7
:103F50007B685B683A681A607B683A685A6000BFA1
:103F60000C37BD465DF8047B704780B582B000AF6A
:103F7000786039607B681B6839681846FFF7DCFF9A
:103F800000BF0837BD4680BD80B483B000AF786005
:103F90007B685B687A6812681A607B681B687A685D
:103FA00052685A607B6800225A607B6800221A605F
:103FB00000BF0C37BD465DF8047B704780B483B00A
:103FC00000AF78607B685B687A689A420CBF012317
:103FD0000023DBB218460C37BD465DF8047B704702
:103FE00080B582B000AF174B1B68002B01D00023B7
:103FF00024E0144B144A1A601448FFF78DFF002385
:104000007B6017E00F4B19687A6813465B00134416
:10401000DB000B443B603B687A685A603B680022D7
:104020001A703B68083319460848FFF79EFF7B6803
:1040300001337B607B68132BE4D9002318460837D3
:10404000BD4680BD6C020020700200209019002047
:1040500080B58AB002AF7860254B1B68002B01D178
:10406000FFF7BEFF7B68002B01D1224B3CE0FDF740
:1040700061F8F8612048FFF7A1FF0346002B11D03B
:10408000F869FDF75DF81D4B3B611D4BFB6000BF00
:104090000023009300233A69F9681A4801F06EFB87
:1040A0003B6921E0144B5B68BB61B869FFF76CFFAB
:1040B000BB69083B7B617B6900225A807B690122D6
:1040C0001A707B6900229A827B6900221A617B69DF
:1040D00008331846FFF720FF7B695A687B681A602F
:1040E000F869FDF72DF8002318462037BD4680BD3E
:1040F0006C020020021D000290190020031D000226
:10410000F8C3B2A108E8000880B588B002AF7860B3
:104110007B68132B04D9264B7B61264B3B6139E02E
:10412000254B19687A6813465B001344DB000B4487
:10413000FB60FCF7FFFFB860FB681B78002B07D122
:10414000B868FCF7FDFF1A4B7B611A4B3B6121E01D
:10415000FB6808331846FFF731FF0346002B03D0F6
:10416000FB685B88002B07D0B868FCF7E9FF134BAE
:104170007B61104B3B610DE0FB680833194610482A
:10418000FFF7DAFEFB6800221A70B868FCF7D8FF68
:10419000002308E00023009300237A693969094865
:1041A00001F0ECFA7B6918461837BD4680BD00BFA8
:1041B000011D0002F8C3B2A16C020020091D00021B
:1041C0009019002008E8000880B588B002AF786038
:1041D00039607B68132B09D9002300930023594AC7
:1041E00059495A4801F0CAFA564BA7E0584B19688A
:1041F0007A6813465B001344DB000B443B61FCF719
:1042000099FFF8603B691B78002B0CD1F868FCF72C
:1042100097FF0023009300234A4A4B494B4801F083
:10422000ADFA484B8AE0FDF7D7F80346002B04D0DF
:10423000F868FCF785FF474B80E0474B1B68BB6085
:104240003B695B88002B11D13B695B8801339AB2D3
:104250003B695A803B69BA681A61BB68DA883B6976
:104260009A82F868FCF76CFF002367E03B691B69E2
:10427000BA689A420AD13B695B8801339AB23B69BA
:104280005A80F868FCF75CFF002357E03B68002B7E
:1042900004D1F868FCF754FF304B4FE0304B1B88DB
:1042A000002B0CD02F4B7B612F4808F029FB2F48A7
:1042B00008F0AEFB00BFF868FCF742FF35E0BB68D2
:1042C0003A69DA613B691B69DA88BB68DB889A4224
:1042D00007D93B691A69BB68DB8819461046FDF7A8
:1042E000A0FD3B6908333A6808211846FEF79CFC9C
:1042F000F868FCF725FFFDF723F9BB689B8803F0FE
:104300004003002B0FD0FCF715FFF860BB689B88BB
:1043100023F040039AB2BB689A80F868FCF710FF5C
:10432000134B7B6101E0002308E00023009300238E
:104330007A690549054801F021FA7B691846183762
:10434000BD4680BD011D0002F8C3B2A108E8000807
:104350006C020020051D0002DC170020041D000275
:10436000D8170020061D00021CE8000824E80008F9
:10437000071D000280B588B002AF7860404B196815
:104380007A6813465B001344DB000B447B61FCF747
:10439000D1FE38617B68132B03D87B691B78002B17
:1043A0000CD13869FCF7CCFE002300930023354A7A
:1043B0003549364801F0E2F9324B5DE0344B1B6879
:1043C000FB607B695B88002B04D07B691B69FA6802
:1043D0009A420CD03869FCF7B3FE00230093002307
:1043E000284A2949294801F0C9F9264B44E07B694C
:1043F0005B88013B9AB27B695A807B695B88002BA2
:1044000004D03869FCF79CFE002335E07B691B690A
:10441000DA887B699B8A9A4207D07B691A697B6933
:104420009B8A19461046FDF7FCFC7B690833184649
:10443000FFF7C4FD0346002B1AD17B69DB68283BDC
:10444000BB607B6901225A807B69BA681A61BB68CC
:10445000DA887B699A82BB680022DA610821B86831
:10446000FEF71CFC3869FCF76BFEFDF769F802E00B
:104470003869FCF765FE002318461837BD4680BD35
:104480006C020020011D0002F8C3B2A108E8000878
:10449000DC17002080B584B000AF786039607B689D
:1044A00003F003033A68D31A3B603B6823F003032D
:1044B0003B607B6823F003037B607B68002B03D0A9
:1044C0003B68B3F50C7F01D8012314E07B68FB60E7
:1044D000F86800F08CFCFB6803F50C713B68A3F5F1
:1044E0000C731A46F86800F0A7FC0346002B01D0B5
:1044F000012300E0002318461037BD4680BD0000B0
:1045000080B582B000AF1A4B7B607B681B68184691
:104510007B685A687B681B68D31A1946FFF7BAFF95
:1045200038603B68002B01D03B681DE07B681B684E
:104530001A46104B1A607B6808337B600FE00D4B06
:1045400018687B681B6819467B685A687B681B681B
:10455000D31A1A4600F070FC7B6808337B607B68D6
:104560005B68002BEBD1002318460837BD4680BDA1
:10457000A43F0108A817002080B584B000AFF86000
:10458000B9607A60BA687968F86800F055FD03464A
:1045900018461037BD4680BD80B582B000AF786048
:1045A00039603968786800F09DFD03461846083781
:1045B000BD4680BD80B582B000AF78603960396893
:1045C000786800F09EFD0346002B01D0002300E038
:1045D000012318460837BD4680BD80B584B000AFC2
:1045E000786039600023FB603B68002B01D1FB68D9
:1045F00012E07B68002B01D1FB680DE03968786818
:1046000000F0D1FFF860FB68002B04D139687868AE
:10461000FFF7C2FFF860FB6818461037BD4680BD43
:1046200080B584B000AFF860B9607A607A68B96824
:10463000F868FFF7A1FF034618461037BD4680BD56
:1046400080B584B000AF786039600023FB607B6880
:10465000002B02D03B68002B01D1012312E0396806
:10466000786801F017F8F860FB68012B04D039680E
:104670007868FFF79FFFF860FB68012B14BF0123E8
:104680000023DBB218461037BD4680BD80B483B02E
:1046900000AF78607B6803F5F87318460C37BD46A9
:1046A0005DF8047B7047000080B584B000AF78608F
:1046B00039607B68002B02D1094B1B6800E07B68E6
:1046C000FB603B68002B14BF01230023DBB21946BB
:1046D000F86800F0BFFD00BF1037BD4680BD00BFC9
:1046E000A817002080B483B000AF78607B687A6838
:1046F0005A607B685A687B681A6000BF0C37BD46F9
:104700005DF8047B704780B485B000AFF860B96095
:104710007A607B68FA681A607B68BA685A60FB68DE
:104720007A685A60BB687A681A6000BF1437BD4661
:104730005DF8047B704780B582B000AF7860396067
:104740007B681B683A6879681846FFF7DCFF00BF92
:104750000837BD4680BD80B483B000AF78607B6809
:104760001B687A6852685A607B685B687A6812686E
:104770001A6000BF0C37BD465DF8047B704780B4FB
:1047800083B000AF78607B681B687A689A420CBF80
:1047900001230023DBB218460C37BD465DF8047BCD
:1047A000704780B483B000AF78607B685B6803F0CB
:1047B0000103002B0CBF01230023DBB218460C378A
:1047C000BD465DF8047B704780B483B000AF78606D
:1047D0007B685B6843F001027B685A6000BF0C375E
:1047E000BD465DF8047B704780B483B000AF78604D
:1047F0007B685B6823F001027B685A6000BF0C375E
:10480000BD465DF8047B704780B483B000AF78602C
:104810007B685B6823F001037A68134418460C3701
:10482000BD465DF8047B704780B483B000AF78600C
:104830007B681B6818460C37BD465DF8047B7047E3
:1048400080B483B000AF78607B68083318460C37BB
:10485000BD465DF8047B704780B485B000AF7860DA
:104860007B6853F8043CFB60FB6803F00103002BFA
:1048700002D07B68083B00E0FB6818461437BD4651
:104880005DF8047B704780B483B000AF7860396016
:104890007B68043B3A681A6000BF0C37BD465DF880
:1048A000047B704780B483B000AF78600023184663
:1048B0000C37BD465DF8047B704780B483B000AF11
:1048C00078607B68B3FA83F3C3F11F0318460C3793
:1048D000BD465DF8047B704780B483B000AF78605C
:1048E00039603B68023B7A6822FA03F3043B1846BE
:1048F0000C37BD465DF8047B704780B584B000AFCF
:10490000786039603B685B681846FFF7D6FFF8604F
:104910003B685B68F9681846FFF7DEFFB860FB6824
:104920001C2B02DD4FF0FF3349E07B681B6801213F
:10493000FA6801FA02F21A437B681A60FB68043BCA
:104940007A6813441B795AB20121BB6801FA03F358
:104950005BB213435AB2FB68043BD1B27A6813448A
:104960000A461A71FB68043BFB607B68FA68910099
:10497000BA680A44083253F82230002B0ED13B6843
:1049800008331846FFF7AEFE7B68FA689100BA68F4
:104990000A440832396843F822100FE07B68FA684D
:1049A0009100BA680A44083253F8223003F1080231
:1049B0003B68083319461046FFF7BDFE0023184632
:1049C0001037BD4680BD80B584B000AF78603960D7
:1049D0003B685B681846FFF770FFF8603B685B68F0
:1049E000F9681846FFF778FFB860FB68043BFB6086
:1049F0003B6808331846FFF7C2FE0346002B1CD164
:104A00007B68FA689100BA680A44083253F8223089
:104A10003A689A420BD13B68DB68A3F108017B68D6
:104A2000FA689000BA680244083243F822103B68E2
:104A300008331846FFF78FFE30E07B68FA68910074
:104A4000BA680A440832002143F822107A68FB68E9
:104A5000134404331B785AB20121BB6801FA03F3F3
:104A60005BB2DB435BB213405BB2D9B27A68FB68DE
:104A7000134404330A461A707A68FB6813440433FB
:104A80001B78002B0AD17B681B68FA68043201216D
:104A900001FA02F2D2431A407B681A601037BD4611
:104AA00080BD80B586B000AF786039603868FFF7A8
:104AB00004FF78617B69023B012202FA03F31A4684
:104AC0003B681344013B3B603868FFF7F6FE7861B2
:104AD00079693868FFF700FFF8607B691D2B01DDFD
:104AE000002341E07B69043B7A6813441B79194633
:104AF0004FF0FF32FB6802FA03F30B403B613B6966
:104B0000002B1ED17B681A687B6901334FF0FF319F
:104B100001FA03F31340BB60BB68002B01D10023F3
:104B200022E0BB68DA43BB68013B1340B3FA83F36E
:104B3000C3F120037B617B69043B7A6813441B79D2
:104B40003B613B69DA433B69013B1340B3FA83F3B2
:104B5000C3F12003FB607B691A1F7B689100FA6830
:104B60000A44083253F8223018461837BD4680BD33
:104B700080B489B000AF78607B681B68002B01D1DE
:104B800000234AE07B681B68B3FA83F3C3F11B037D
:104B90007B617A687B69134404331B78B3FA83F32F
:104BA000C3F11F033B617B69182B01DD002334E057
:104BB0003B69032B01DD00232FE07B687A699100BC
:104BC0003A690A44083253F822305B68BB617B685B
:104BD0007A6991003A690A44083253F82230DB6856
:104BE000FB610DE0FB69083BFB60FB685B68BA6931
:104BF0009A4202D2FB685B68BB61FB695B68FB6140
:104C00007B687A6991003A690A44083253F8223085
:104C10000833FA699A42E5D1BB6918462437BD4684
:104C20005DF8047B704780B483B000AF7860396072
:104C30007B681B685A1C7B681A607B685A683B68F3
:104C40005B681344A3F108027B685A6000BF0C370D
:104C5000BD465DF8047B704780B483B000AF7860D8
:104C600039607B681B685A1E7B681A607B685A68CB
:104C70003B685B68D31A03F108027B685A6000BF87
:104C80000C37BD465DF8047B70472DE9900883B072
:104C900000AF786039607B689B685A1C7B689A60BB
:104CA0007B68DA683B685B681A447B68DA607B681B
:104CB000D3E906124B1C42F100047A68C2E90634BB
:104CC0007B68D3E908123B685B689B464FF0000C99
:104CD0001BEB01034CEB02047A68C2E908347B68E1
:104CE000DA687B681B699A4203D97B68DA687B685B
:104CF0001A6100BF0C37BD46BDE8900870472DE92A
:104D0000900883B000AF786039607B689B685A1E5A
:104D10007B689A607B68DA683B685B68D21A7B685C
:104D2000DA607B68D3E90A124B1C42F100047A680E
:104D3000C2E90A347B68D3E90C123B685B689B4686
:104D40004FF0000C1BEB01034CEB02047A68C2E944
:104D50000C3400BF0C37BD46BDE89008704780B5E5
:104D600082B000AF786039607B6839681846FFF719
:104D7000C4FD0346002B02D04FF0FF3307E07B68F1
:104D800003F5DC7339681846FFF74DFF002318461A
:104D90000837BD4680BD80B582B000AF786039600D
:104DA0007B6839681846FFF70EFE7B6803F5DC73F5
:104DB00039681846FFF750FF00BF0837BD4680BD71
:104DC00080B584B000AF786039607B683968184678
:104DD000FFF767FEF860FB68002B03D0F96878687E
:104DE000FFF7D9FFFB6818461037BD4680BD80B578
:104DF00084B000AF78607B68002B02D14FF0FF33A6
:104E000016E04FF40C720021786807F071FD7B68A2
:104E100003F5DA731846FFF71BF9F860FB68002BFF
:104E200001D0FB6804E07B681846FFF73BFD0023D8
:104E300018461037BD4680BD80B588B000AFF86019
:104E4000B9607A60FB68002B02D0BB68002B02D1EE
:104E50004FF0FF3371E0BB6803F003037A68D31AA5
:104E60007B607B6823F003037B60BB6823F0030354
:104E7000BB60BA687B681344BA689A4202D94FF0A3
:104E8000FF335AE07B68272B02D84FF0FF3354E002
:104E9000FB68D3F8B4314FF0FF311846FFF794F9AF
:104EA0000346FB61FB69002B01D0FB6945E0BB6851
:104EB000BB61BB697A685A60FB68D3F8B021BB69F3
:104EC0001A60FB68BA69C3F8B021BB6908337B611B
:104ED0007B6900221A607B6908225A607869FFF7B3
:104EE00073FC7869FFF790FC7861BB6903F10802F5
:104EF0007B691A607B68A3F118027B695A60796943
:104F0000F868FFF72CFF0346002B02D04FF0FF3369
:104F100013E07869FFF778FC38613B697A691A60B9
:104F20003B6908225A603869FFF74EFCFB68D3F8EA
:104F3000B4311846FFF71EFA002318462037BD4645
:104F400080BD80B58AB000AFF860B9607A603B6020
:104F5000B868FFF775FC38623A6A7B6813445A1EDA
:104F60007B685B421340FB61BB687B62FA693B6A0A
:104F70009A4227D0FA69BB68D31A182B04D8B968AB
:104F8000F869FFF780FC1DE0FB69083B7B627B6AE8
:104F9000BA681A60BB685B68796ABA688A1A9A1A32
:104FA0007B6A5A60786AFFF72FFC02467B6A1360BF
:104FB0007A6ABB68D31A1A46BB685A60B968F8683F
:104FC000FFF7CDFE7B6A5B68F9697A6A8A1A9B1AD9
:104FD000BB61BA693B68D31A0F2B1ED97B6A5A682A
:104FE0003968BB69CB1A1A447B6A5A60FA693B6814
:104FF0001344BB60BB687A6A1A60BA693B68D21A0C
:10500000BB685A60B868FFF7FFFB78617B69BA68D4
:105010001A60B968F868FFF7A2FEFB6803F5DC7355
:10502000796A1846FFF731FE786AFFF7CDFBFB6916
:1050300018462837BD4680BD80B586B000AFF86001
:10504000B9607A6000237B61FB68002B01D10023EB
:1050500044E0BB685A1EBB681340002B01D00023FC
:105060003CE07B68002B01D07B6800E001237B6083
:10507000BB68042B38BF0423BB607B68072B01D8B7
:1050800008237B607B68033323F003037B60FB68AA
:10509000D3F8B4314FF0FF311846FFF795F80346C7
:1050A000002B01D0002319E07A68BB681344043355
:1050B0001946F868FFF784FE38613B69002B06D07B
:1050C0007B68BA683969F868FFF73BFF7861FB686D
:1050D000D3F8B4311846FFF74DF97B6918461837F5
:1050E000BD4680BD80B582B000AF786039603A6857
:1050F00004217868FFF7A0FF034618460837BD462D
:1051000080BD80B586B000AF786039607B68002BC9
:1051100002D14FF0FF335EE03B68002B01D100234A
:1051200059E03868FFF798FB78617B68D3F8B431B1
:105130004FF0FF311846FFF747F80346002B02D027
:105140004FF0FF3347E07869FFF74EFB7B6803F5CC
:10515000DC7379691846FFF7D2FD7869FFF764FBC5
:10516000F8607869FFF750FB3861F868FFF719FBC2
:105170000346002B0CD0F9687868FFF70CFEFB683B
:105180005A687B695B681A44FB685A60FB687B61FC
:105190003869FFF706FB0346002B0ED039697868A3
:1051A000FFF7F9FD7B695A683B695B681A447B69C4
:1051B0005A607869FFF728FB38613B697A691A60A1
:1051C00079697868FFF7CBFD7B68D3F8B43118466E
:1051D000FFF7D0F8002318461837BD4680BD000001
:1051E00080B584B000AF78607B680833FB601448FA
:1051F00007F086FB134807F083FBFB685B6823F02E
:105200000102FB685B6803F00103002B01D10E4B28
:1052100000E00E4BF9680E4807F072FBFB681B6854
:10522000002B03D0FB685B68092B04D0F868FFF7FC
:10523000EBFAF860E1E700BF00BF1037BD4680BD64
:1052400048E8000868E800088CE8000894E80008CE
:10525000A0E8000890B587B002AF78600B46FB70FD
:105260007B68D3F8B031FB60FB78002B02D03D485F
:1052700007F046FB7B68D3F8B4314FF0FF31184696
:10528000FEF7A2FF0346002B68D1FB78002B09D064
:1052900005E0F868FFF7A4FFFB681B68FB60FB688C
:1052A000002BF6D1304807F02BFB304807F028FBE5
:1052B0002F4807F025FB2F4807F022FB7B68D3F827
:1052C000BC117B68D3F8B8311A462B4807F018FB9D
:1052D0007B68D3F8C4117B68D3F8C0311A462748DD
:1052E00007F00EFB264807F00BFB7B6803F5F47311
:1052F000D3E900127B6803F5F073D3E90034CDE9FC
:10530000003413460A461F4807F0FAFA7B6803F593
:10531000EC73D3E900127B6803F5E873D3E900343A
:10532000CDE9003413460A46174807F0E9FA7B68CE
:10533000D3F8C8311946154807F0E2FA7B681846D9
:10534000FFF716FC03461946114807F0D9FA7B68A7
:10535000D3F8B4311846FFF70DF800E000BF14375A
:10536000BD4690BDB0E80008CCE80008DCE80008C5
:1053700004E900082CE9000838E900084CE90008B5
:1053800060E9000870E9000888E90008A0E9000861
:10539000CCE9000880B483B000AF78607B681B68FC
:1053A00018460C37BD465DF8047B704780B483B067
:1053B00000AF786039607B681B683A689A4201D315
:1053C000002311E03B685B097A689B0013445A682C
:1053D0003B6803F01F0322FA03F303F00103002BE1
:1053E00014BF01230023DBB218460C37BD465DF81D
:1053F000047B704780B485B000AF786039607B680B
:105400001A1D3B685B099B001344FB607B681B68AB
:105410003A689A420CD2FB681A683B6803F01F0393
:10542000012101FA03F3DB431A40FB681A6000E034
:1054300000BF1437BD465DF8047B704780B489B067
:1054400000AF78607B681B681F335B09FB607B687B
:105450000433BB6100233B610023FB6129E0BB698E
:105460001B68B3F1FF3F06D1FB690133FB61BB69E8
:105470000433BB611DE0BB691B68DB437B6105E056
:105480007B695B087B613B6901333B617B69002B76
:10549000F6D1BB691A683B69013B012101FA03F3AC
:1054A0001A43BB691A60FB695A013B691344013B0B
:1054B00005E0FA69FB689A42D1D34FF0FF331846F2
:1054C0002437BD465DF8047B704780B584B000AFDB
:1054D00078607B689B681846FFF7B0FFF860FB6850
:1054E000002B01DA002307E07B685A687B681B68A1
:1054F000F96801FB03F3134418461037BD4680BD1D
:1055000080B586B000AF786039603B687B617B69AD
:105510007A6852689B1A3B617B681B683A69B2FBE8
:10552000F3F3FB607B681A683B69B3FBF2F102FBA3
:1055300001F29B1A002B11D17B689B681846FFF77C
:1055400029FF0246FB68934208D27B689B68F96892
:105550001846FFF72BFF0346002B01D1002306E07E
:105560007B689B68F9681846FFF744FF01231846DB
:105570001837BD4680BD80B483B000AF7860396015
:105580007B684DF6DE621A803B68DAB27B689A70FF
:105590007B680022DA707B68043318460C37BD46FE
:1055A0005DF8047B704780B588B000AF78603960E3
:1055B0000023FB617868FFF769F8786100233B619D
:1055C0000023BB613B68802B01D900235EE00023F0
:1055D000BB6157E07A69BB691B0113441B683A68D9
:1055E0009A424CD8FBF7A6FDF8607A69BB691B01AB
:1055F000134408331A687969BB691B010B440433EF
:105600001B689A4204D3F868FBF79AFD00233DE03B
:105610007A69BB691B0113440C331B68002B04D14E
:10562000F868FBF78DFD002330E0BB691B017A6948
:1056300013443B613B69DB681846FFF746FFF8619E
:10564000FB69002B16D07A69BB691B0113441B68E8
:105650001946F869FFF78FFFF8617A69BB691B018A
:10566000134408331B685A1C7969BB691B010B443E
:1056700008331A60F868FBF763FDFB6906E0BB6955
:105680000133BB61BB69032BA4D900231846203723
:10569000BD4680BD80B588B000AF7860396078685D
:1056A000FEF7F4FF78610023FB610023BB613B68D8
:1056B000043B3B613B691B884DF6DE62934201D09F
:1056C000002338E00023BB6131E03B699B78194639
:1056D0007A69BB691B0113441B68994224D8FBF704
:1056E00029FDF860BB691B017A691344BB60BB6884
:1056F000DB6839691846FFF703FF0346012B0ED11B
:105700000123FB617A69BB691B01134408331B68E1
:105710005A1E7969BB691B010B4408331A60F8688B
:10572000FBF70EFDFB6906E0BB690133BB61BB699A
:10573000032BCAD9002318462037BD4680BD80B44C
:1057400083B000AF786039607A683B681344013BEE
:105750007A689A4207D27A683B6813445A1E3B68BB
:105760005B42134003E03B685A427B681340184693
:105770000C37BD465DF8047B7047000090B587B0DC
:1057800002AFF860B9607A603B600C4B1B68002B7D
:1057900008D00A4B1C683B6A00933B687A68B9687A
:1057A000F868A047BB68064A934201D0002300E096
:1057B000002318461437BD4690BD00BF981900203D
:1057C000F8C3B2A190B585B000AFFBF705FE034664
:1057D000002B06D04FF000034FF00004C7E902345D
:1057E0000AE0FBF7A7FC7860074BD3E90034C7E970
:1057F00002347868FBF7A4FCD7E902341846214646
:105800001437BD4690BD00BF5019002090B589B037
:1058100004AF78603960314B0193314B0093314BC9
:10582000314A3249324807F06BF80023FB601FE031
:10583000304B1A68FB681B011344BB60BB681968D6
:10584000BB689B8903F001032B4A52F82320BB68F5
:10585000DB891C46BB689B681846BB685B68019384
:1058600000902346254807F04BF8FB680133FB60A6
:10587000204B5B68FA689A42DADB0023FB6022E087
:105880001C4B9A68FB681B011344BB60BB6819681A
:10589000BB689B8903F00103174A52F82320BB68B9
:1058A000DB891846BB689B681C46BB685B68029333
:1058B0000194009013460A46F968114807F020F851
:1058C000FB680133FB600B4BDB68FA689A42D7DB5D
:1058D000002318461437BD4690BD00BF24EA0008D7
:1058E00030EA0008F4E90008F8E9000800EA0008D6
:1058F00008EA0008500400200000002038EA0008F0
:1059000054EA000880B586B000AF786000237B6160
:1059100000233B6100233B610023FB6014E01F4B2D
:105920001A68FB681B0113447B617B691B6819467D
:105930007868FAF7B5FD0346002B02D17B693B611D
:1059400007E0FB680133FB60144B5B68FA689A421E
:10595000E5DB7B69002B1CD10023FB6014E00F4BBF
:105960009A68FB681B0113447B617B691B681946BD
:105970007868FAF795FD0346002B02D17B693B61FD
:1059800007E0FB680133FB60044BDB68FA689A426E
:10599000E5DB3B6918461837BD4680BD5004002042
:1059A00090B585B000AF7860364B0022A3F8402058
:1059B0000023FB6024E0344B1A68FB681B0113448E
:1059C000BB60BB681C687868FAF774FD03461A462A
:1059D0007968204607F0FCF80346002B0DD1294BCF
:1059E000B3F840305A1C91B2264AA2F8401019462A
:1059F000BB681B68234A42F82130FB680133FB6017
:105A0000214B5B68FA689A4204DA1E4BB3F84030C7
:105A10000F2BD0D90023FB6024E01B4B9A68FB6856
:105A20001B011344BB60BB681C687868FAF742FD31
:105A300003461A467968204607F0CAF80346002B49
:105A40000DD1104BB3F840305A1C91B20D4AA2F858
:105A500040101946BB681B680A4A42F82130FB68AF
:105A60000133FB60084BDB68FA689A4204DA054BA5
:105A7000B3F840300F2BD0D9024B18461437BD462F
:105A800090BD00BF600400205004002080B59AB093
:105A900000AF78604FF0FF337B6610233B6507F162
:105AA0000C0107F150037A681846FAF7E1FE3B6DE6
:105AB000002B06D100210020FFF7A8FE00237B6603
:105AC00058E0FB681846FFF71DFFB865BB6D002B5B
:105AD00008D1FB6819462A4806F012FF4FF0FF3341
:105AE0007B6647E0BB6D9B89002B09D1BB6D9B6832
:105AF0007B653A6D07F10C017B6D1046984739E0E4
:105B00003B6D032B1AD13B691E491846FAF7C8FCB6
:105B10000346002B12D17B6900220021184607F0B2
:105B200025F90346FB64BB6D9868BB6DDB891A469B
:105B300007F14C03194606F0D0FE1BE0BB6D9B68D5
:105B40003B663B6E1946104806F0DAFE0023FB6503
:105B50000AE03B6E5A1C3A661B7819460B4806F061
:105B6000CFFEFB6D0133FB65BB6DDB891A46FB6D18
:105B70009342EEDB7B6E18466837BD4680BD00BFA2
:105B800078EA000894EA000898EA0008ACEA0008FD
:105B900080B483B000AF00237B6000233B600C4BDC
:105BA0007B600C4A0A4BD31A3B603B68002B08D041
:105BB0003B681B093B60084A7B6813603B68064AE8
:105BC0005360002318460C37BD465DF8047B7047D0
:105BD00008E4000888E400085004002080B582B082
:105BE00000AF7860396000220121044806F088FE89
:105BF000002318460837BD4680BD00BFB4EA000840
:105C000080B500AF06F024FE0346184680BD0000B4
:105C100080B582B000AF7860786806F089FE054BE9
:105C20001B689B68184606F01BFD00BF0837BD4681
:105C300080BD00BF2400002080B584B000AF786034
:105C40007868FAF737FC0346BB600023FB600AE084
:105C50007B681B781846FFF7DBFF7B6801337B60AE
:105C6000FB680133FB60FA68BB689A42F0DB00BF57
:105C70001037BD4680BD000080B500AF0248FFF779
:105C8000DBFF00BF80BD00BF04EB000880B584B01F
:105C900000AF78600023FB60094BBB600023FB6012
:105CA00005E0B868FFF7C8FFFB680133FB60FA68DE
:105CB0007B689A42F5DB00BF1037BD4680BD00BF50
:105CC00010EB000880B584B000AF78600023FB6063
:105CD0000023FB6005E02020FFF79AFFFB680133FB
:105CE000FB60FA687B689A42F5DB00BF1037BD465F
:105CF00080BD80B584B000AF786039600023FB6060
:105D00000023FB6016E03B68FB72FB7A1846FFF746
:105D10007FFF3B681B0AFB72FB7A1846FFF778FF90
:105D20003B681B0CFB72FB7A1846FFF771FFFB68A0
:105D30000133FB60FA687B689A42E4DB00BF1037EE
:105D4000BD4680BD80B500AF0720FFF761FF00BFF3
:105D500080BD80B584B000AF78600023FB60002375
:105D6000FB6005E00820FFF753FFFB680133FB6091
:105D7000FA687B689A42F5DB00BF1037BD4680BDEC
:105D800080B584B000AF78600023FB600023FB6027
:105D90000FE07868FB6801339B017A681344013394
:105DA0001946FAF77DFB0346002B06D0FB6801334A
:105DB000FB60FB68032BECDD00E000BFFB68042BFD
:105DC00029D17B6893F84131BB60BB6801339B01EB
:105DD0007A681344013340220021184606F088FDFA
:105DE000BB6801339B017A68134401337968402210
:105DF000184606F0FFFEBB6801335A4203F0030366
:105E000002F0030258BF5342BB60BB68DAB27B6842
:105E100083F8412100BF00BF1037BD4680BD90B55B
:105E200087B000AF786039607B687A6892F840206C
:105E300013447B617869FAF73DFB0346FB603868E1
:105E4000FAF738FB0346BB603868FFF7F5FE786960
:105E5000FFF7F2FEF868FFF77CFF7B6893F84020BD
